{
  "contractName": "Admin",
  "abi": [
    {
      "constant": true,
      "inputs": [],
      "name": "voterFactory",
      "outputs": [
        {
          "name": "",
          "type": "address"
        }
      ],
      "payable": false,
      "stateMutability": "view",
      "type": "function"
    },
    {
      "inputs": [
        {
          "name": "day",
          "type": "uint8"
        },
        {
          "name": "month",
          "type": "uint8"
        },
        {
          "name": "year",
          "type": "uint16"
        },
        {
          "name": "name",
          "type": "string"
        }
      ],
      "payable": false,
      "stateMutability": "nonpayable",
      "type": "constructor"
    },
    {
      "constant": true,
      "inputs": [
        {
          "name": "aadhaar",
          "type": "uint256"
        }
      ],
      "name": "isEligible",
      "outputs": [
        {
          "name": "",
          "type": "bool"
        }
      ],
      "payable": false,
      "stateMutability": "view",
      "type": "function"
    },
    {
      "constant": true,
      "inputs": [],
      "name": "returnAddress",
      "outputs": [
        {
          "name": "",
          "type": "address"
        }
      ],
      "payable": false,
      "stateMutability": "view",
      "type": "function"
    },
    {
      "constant": false,
      "inputs": [
        {
          "name": "aadhaar",
          "type": "uint256"
        },
        {
          "name": "day",
          "type": "uint8"
        },
        {
          "name": "month",
          "type": "uint8"
        },
        {
          "name": "year",
          "type": "uint16"
        },
        {
          "name": "name",
          "type": "string"
        },
        {
          "name": "ward",
          "type": "int256"
        },
        {
          "name": "mobile",
          "type": "string"
        }
      ],
      "name": "addUserData",
      "outputs": [],
      "payable": false,
      "stateMutability": "nonpayable",
      "type": "function"
    },
    {
      "constant": false,
      "inputs": [
        {
          "name": "aadhaar",
          "type": "uint256"
        }
      ],
      "name": "createVoter",
      "outputs": [
        {
          "name": "",
          "type": "address"
        }
      ],
      "payable": false,
      "stateMutability": "nonpayable",
      "type": "function"
    },
    {
      "constant": false,
      "inputs": [],
      "name": "createVoters",
      "outputs": [
        {
          "name": "",
          "type": "address[]"
        }
      ],
      "payable": false,
      "stateMutability": "nonpayable",
      "type": "function"
    },
    {
      "constant": false,
      "inputs": [
        {
          "name": "_voterFactory",
          "type": "address"
        }
      ],
      "name": "setVoterFactory",
      "outputs": [],
      "payable": false,
      "stateMutability": "nonpayable",
      "type": "function"
    },
    {
      "constant": true,
      "inputs": [],
      "name": "returnResultDate",
      "outputs": [
        {
          "name": "day",
          "type": "uint8"
        },
        {
          "name": "month",
          "type": "uint8"
        },
        {
          "name": "year",
          "type": "uint16"
        }
      ],
      "payable": false,
      "stateMutability": "view",
      "type": "function"
    }
  ],
  "bytecode": "0x608060405273bb2869dd663544dae1efa69f010ae11c7e33f3a2600460006101000a81548173ffffffffffffffffffffffffffffffffffffffff021916908373ffffffffffffffffffffffffffffffffffffffff1602179055503480156200006657600080fd5b50604051620015e9380380620015e9833981018060405260808110156200008c57600080fd5b810190808051906020019092919080519060200190929190805190602001909291908051640100000000811115620000c357600080fd5b82810190506020810184811115620000da57600080fd5b8151856001820283011164010000000082111715620000f857600080fd5b5050929190505050600460009054906101000a900473ffffffffffffffffffffffffffffffffffffffff1673ffffffffffffffffffffffffffffffffffffffff163373ffffffffffffffffffffffffffffffffffffffff16141515620001c6576040517f08c379a000000000000000000000000000000000000000000000000000000000815260040180806020018281038252600d8152602001807f4d757374206265206f776e65720000000000000000000000000000000000000081525060200191505060405180910390fd5b83600260000160036101000a81548160ff021916908360ff16021790555082600260000160026101000a81548160ff021916908360ff16021790555081600260000160006101000a81548161ffff021916908361ffff16021790555080600390805190602001906200023a92919062000245565b5050505050620002f4565b828054600181600116156101000203166002900490600052602060002090601f016020900481019282601f106200028857805160ff1916838001178555620002b9565b82800160010185558215620002b9579182015b82811115620002b85782518255916020019190600101906200029b565b5b509050620002c89190620002cc565b5090565b620002f191905b80821115620002ed576000816000905550600101620002d3565b5090565b90565b6112e580620003046000396000f3fe60806040526004361061008e576000357c0100000000000000000000000000000000000000000000000000000000900463ffffffff168063053b56c0146100935780634ab21a6b146100e65780637aa5ea311461013757806384b107b4146101b2578063943640c31461034d578063cec54acc146103a4578063e00d0fad14610410578063e6cb995414610467575b600080fd5b34801561009f57600080fd5b506100cc600480360360208110156100b657600080fd5b81019080803590602001909291905050506104b4565b604051808215151515815260200191505060405180910390f35b3480156100f257600080fd5b506101356004803603602081101561010957600080fd5b81019080803573ffffffffffffffffffffffffffffffffffffffff1690602001909291905050506105c6565b005b34801561014357600080fd5b506101706004803603602081101561015a57600080fd5b81019080803590602001909291905050506106cf565b604051808273ffffffffffffffffffffffffffffffffffffffff1673ffffffffffffffffffffffffffffffffffffffff16815260200191505060405180910390f35b3480156101be57600080fd5b5061034b600480360360e08110156101d557600080fd5b8101908080359060200190929190803560ff169060200190929190803560ff169060200190929190803561ffff1690602001909291908035906020019064010000000081111561022457600080fd5b82018360208201111561023657600080fd5b8035906020019184600183028401116401000000008311171561025857600080fd5b91908080601f016020809104026020016040519081016040528093929190818152602001838380828437600081840152601f19601f82011690508083019250505050505050919291929080359060200190929190803590602001906401000000008111156102c557600080fd5b8201836020820111156102d757600080fd5b803590602001918460018302840111640100000000831117156102f957600080fd5b91908080601f016020809104026020016040519081016040528093929190818152602001838380828437600081840152601f19601f820116905080830192505050505050509192919290505050610cda565b005b34801561035957600080fd5b50610362610f0d565b604051808273ffffffffffffffffffffffffffffffffffffffff1673ffffffffffffffffffffffffffffffffffffffff16815260200191505060405180910390f35b3480156103b057600080fd5b506103b9610f15565b6040518080602001828103825283818151815260200191508051906020019060200280838360005b838110156103fc5780820151818401526020810190506103e1565b505050509050019250505060405180910390f35b34801561041c57600080fd5b50610425611116565b604051808273ffffffffffffffffffffffffffffffffffffffff1673ffffffffffffffffffffffffffffffffffffffff16815260200191505060405180910390f35b34801561047357600080fd5b5061047c61113c565b604051808460ff1660ff1681526020018360ff1660ff1681526020018261ffff1661ffff168152602001935050505060405180910390f35b6000600460009054906101000a900473ffffffffffffffffffffffffffffffffffffffff1673ffffffffffffffffffffffffffffffffffffffff163373ffffffffffffffffffffffffffffffffffffffff1614151561057b576040517f08c379a000000000000000000000000000000000000000000000000000000000815260040180806020018281038252600d8152602001807f4d757374206265206f776e65720000000000000000000000000000000000000081525060200191505060405180910390fd5b60126001600084815260200190815260200160002060010160000160009054906101000a900461ffff16600260000160009054906101000a900461ffff160361ffff16119050919050565b600460009054906101000a900473ffffffffffffffffffffffffffffffffffffffff1673ffffffffffffffffffffffffffffffffffffffff163373ffffffffffffffffffffffffffffffffffffffff1614151561068b576040517f08c379a000000000000000000000000000000000000000000000000000000000815260040180806020018281038252600d8152602001807f4d757374206265206f776e65720000000000000000000000000000000000000081525060200191505060405180910390fd5b80600560006101000a81548173ffffffffffffffffffffffffffffffffffffffff021916908373ffffffffffffffffffffffffffffffffffffffff16021790555050565b6000600460009054906101000a900473ffffffffffffffffffffffffffffffffffffffff1673ffffffffffffffffffffffffffffffffffffffff163373ffffffffffffffffffffffffffffffffffffffff16141515610796576040517f08c379a000000000000000000000000000000000000000000000000000000000815260040180806020018281038252600d8152602001807f4d757374206265206f776e65720000000000000000000000000000000000000081525060200191505060405180910390fd5b600073ffffffffffffffffffffffffffffffffffffffff16600560009054906101000a900473ffffffffffffffffffffffffffffffffffffffff1673ffffffffffffffffffffffffffffffffffffffff161415151561085d576040517f08c379a00000000000000000000000000000000000000000000000000000000081526004018080602001828103825260148152602001807f566f746572466163746f7279206e6f742073657400000000000000000000000081525060200191505060405180910390fd5b610866826104b4565b15156108da576040517f08c379a00000000000000000000000000000000000000000000000000000000081526004018080602001828103825260088152602001807f556e64657220313800000000000000000000000000000000000000000000000081525060200191505060405180910390fd5b6108e2611186565b6001600084815260200190815260200160002060a060405190810160405290816000820154815260200160018201606060405190810160405290816000820160009054906101000a900461ffff1661ffff1661ffff1681526020016000820160029054906101000a900460ff1660ff1660ff1681526020016000820160039054906101000a900460ff1660ff1660ff16815250508152602001600282018054600181600116156101000203166002900480601f016020809104026020016040519081016040528092919081815260200182805460018160011615610100020316600290048015610a135780601f106109e857610100808354040283529160200191610a13565b820191906000526020600020905b8154815290600101906020018083116109f657829003601f168201915b5050505050815260200160038201548152602001600482018054600181600116156101000203166002900480601f016020809104026020016040519081016040528092919081815260200182805460018160011615610100020316600290048015610abf5780601f10610a9457610100808354040283529160200191610abf565b820191906000526020600020905b815481529060010190602001808311610aa257829003601f168201915b50505050508152505090506000600560009054906101000a900473ffffffffffffffffffffffffffffffffffffffff1690508073ffffffffffffffffffffffffffffffffffffffff1663e07e3cbf83600001518460200151604001518560200151602001518660200151600001518760400151886060015189608001516040518863ffffffff167c0100000000000000000000000000000000000000000000000000000000028152600401808881526020018760ff1660ff1681526020018660ff1660ff1681526020018561ffff1661ffff1681526020018060200184815260200180602001838103835286818151815260200191508051906020019080838360005b83811015610bdd578082015181840152602081019050610bc2565b50505050905090810190601f168015610c0a5780820380516001836020036101000a031916815260200191505b50838103825284818151815260200191508051906020019080838360005b83811015610c43578082015181840152602081019050610c28565b50505050905090810190601f168015610c705780820380516001836020036101000a031916815260200191505b509950505050505050505050602060405180830381600087803b158015610c9657600080fd5b505af1158015610caa573d6000803e3d6000fd5b505050506040513d6020811015610cc057600080fd5b810190808051906020019092919050505092505050919050565b600460009054906101000a900473ffffffffffffffffffffffffffffffffffffffff1673ffffffffffffffffffffffffffffffffffffffff163373ffffffffffffffffffffffffffffffffffffffff16141515610d9f576040517f08c379a000000000000000000000000000000000000000000000000000000000815260040180806020018281038252600d8152602001807f4d757374206265206f776e65720000000000000000000000000000000000000081525060200191505060405180910390fd5b610da76111bc565b6060604051908101604052808661ffff1681526020018760ff1681526020018860ff168152509050610dd7611186565b60a0604051908101604052808a815260200183815260200186815260200185815260200184815250905080600160008b81526020019081526020016000206000820151816000015560208201518160010160008201518160000160006101000a81548161ffff021916908361ffff16021790555060208201518160000160026101000a81548160ff021916908360ff16021790555060408201518160000160036101000a81548160ff021916908360ff16021790555050506040820151816002019080519060200190610eab9291906111e8565b50606082015181600301556080820151816004019080519060200190610ed29291906111e8565b509050506000899080600181540180825580915050906001820390600052602060002001600090919290919091505550505050505050505050565b600030905090565b6060600460009054906101000a900473ffffffffffffffffffffffffffffffffffffffff1673ffffffffffffffffffffffffffffffffffffffff163373ffffffffffffffffffffffffffffffffffffffff16141515610fdc576040517f08c379a000000000000000000000000000000000000000000000000000000000815260040180806020018281038252600d8152602001807f4d757374206265206f776e65720000000000000000000000000000000000000081525060200191505060405180910390fd5b60008090505b6000805490508160ff16101561108957600661101960008360ff1681548110151561100957fe5b90600052602060002001546106cf565b90806001815401808255809150509060018203906000526020600020016000909192909190916101000a81548173ffffffffffffffffffffffffffffffffffffffff021916908373ffffffffffffffffffffffffffffffffffffffff160217905550508080600101915050610fe2565b50600680548060200260200160405190810160405280929190818152602001828054801561110c57602002820191906000526020600020905b8160009054906101000a900473ffffffffffffffffffffffffffffffffffffffff1673ffffffffffffffffffffffffffffffffffffffff16815260200190600101908083116110c2575b5050505050905090565b600560009054906101000a900473ffffffffffffffffffffffffffffffffffffffff1681565b6000806000600260000160039054906101000a900460ff16600260000160029054906101000a900460ff16600260000160009054906101000a900461ffff16925092509250909192565b60e060405190810160405280600081526020016111a1611268565b81526020016060815260200160008152602001606081525090565b606060405190810160405280600061ffff168152602001600060ff168152602001600060ff1681525090565b828054600181600116156101000203166002900490600052602060002090601f016020900481019282601f1061122957805160ff1916838001178555611257565b82800160010185558215611257579182015b8281111561125657825182559160200191906001019061123b565b5b5090506112649190611294565b5090565b606060405190810160405280600061ffff168152602001600060ff168152602001600060ff1681525090565b6112b691905b808211156112b257600081600090555060010161129a565b5090565b9056fea165627a7a72305820c80b3932c41d36f6b8204141cba786a91f2f14e666f5b387052ab3e5ad7982640029",
  "source": "pragma solidity >=0.4.22 <0.6.0;\r\nimport \"./VoterFactory.sol\";\r\n\r\ncontract Admin{\r\n    struct userInfo{\r\n        uint256 aadhaar;\r\n        DateTime dob; // ddmmyyyy\r\n        string name;\r\n        int ward;\r\n        string mobile;\r\n    }\r\n    \r\n    struct DateTime {\r\n        uint16 year;\r\n        uint8 month;\r\n        uint8 day;\r\n    }\r\n    \r\n    uint256[] aadhaarList;\r\n    mapping(uint256=>userInfo) usersList;\r\n    DateTime resultDate;\r\n    string electionName;\r\n    address private owner=address(0xbB2869dd663544daE1EfA69F010aE11C7E33f3a2);\r\n    address public voterFactory;\r\n    address[] private voterList;\r\n    \r\n    constructor(uint8 day, uint8 month, uint16 year, string memory name) public restricted{\r\n        resultDate.day = day;\r\n        resultDate.month = month;\r\n        resultDate.year = year;\r\n        electionName = name;\r\n    }\r\n    \r\n    function isEligible(uint256 aadhaar) public view restricted returns(bool){\r\n        return (resultDate.year - usersList[aadhaar].dob.year > 18);\r\n    }\r\n    \r\n    function returnAddress() public view returns (address){\r\n        return address(this);\r\n    }\r\n    \r\n    function addUserData(uint256 aadhaar, uint8 day, uint8 month,uint16 year, string memory name, int ward, string memory mobile) public restricted{\r\n        DateTime memory dob = DateTime(year, month, day);\r\n        userInfo memory user = userInfo(aadhaar, dob, name, ward, mobile);\r\n        usersList[aadhaar] = user;\r\n        aadhaarList.push(aadhaar);\r\n    }\r\n    \r\n    function createVoter(uint256 aadhaar) public restricted returns(address){\r\n        require(voterFactory != address(0x0), \"VoterFactory not set\");\r\n        require(isEligible(aadhaar), \"Under 18\");\r\n        userInfo memory user=usersList[aadhaar];\r\n        VoterFactory _voterFactory = VoterFactory(voterFactory);\r\n        return _voterFactory.createVoter(user.aadhaar, user.dob.day, user.dob.month, user.dob.year, user.name, user.ward, user.mobile);\r\n    }\r\n    \r\n    function createVoters() public restricted returns(address[] memory){\r\n        for (uint8 i=0; i<aadhaarList.length; i++){\r\n            voterList.push(createVoter(aadhaarList[i]));\r\n        }\r\n        return voterList;\r\n    }\r\n    \r\n    function setVoterFactory(address _voterFactory) public restricted{\r\n        voterFactory = address(_voterFactory);\r\n    }\r\n\r\n    function returnResultDate() public view returns(uint8 day, uint8 month, uint16 year){\r\n        return (resultDate.day, resultDate.month, resultDate.year);\r\n    }\r\n    \r\n    modifier restricted() {\r\n        require(msg.sender == owner, \"Must be owner\");\r\n        _;\r\n    }\r\n    \r\n}\r\n\r\n// 1001, 23,11,2005, \"MR\", 1\r\n//  1001, 23,11, 1998, \"MR\", 1\r\n// 1002,12,9,1997,\"GG\", 1\r\n// 1003,13,5,1994,\"SB\", 2\r\n// 25, 11, 2019, \"First\"",
  "sourcePath": "c:/Users/mayan/OneDrive/Desktop/asdf/blockvote/contracts/Admin.sol",
  "compiler": {
    "name": "solc",
    "version": "0.5.0+commit.1d4f565a.Emscripten.clang"
  },
  "schemaVersion": "3.0.11",
  "updatedAt": "2019-08-21T10:39:29.760Z",
  "devdoc": {
    "methods": {}
  },
  "userdoc": {
    "methods": {}
  }
}