{
  "contractName": "Ballot",
  "abi": [
    {
      "constant": true,
      "inputs": [
        {
          "name": "",
          "type": "uint256"
        }
      ],
      "name": "candidateList",
      "outputs": [
        {
          "name": "name",
          "type": "string"
        },
        {
          "name": "aadhar",
          "type": "uint256"
        },
        {
          "name": "partyname",
          "type": "string"
        }
      ],
      "payable": false,
      "stateMutability": "view",
      "type": "function"
    },
    {
      "inputs": [],
      "payable": false,
      "stateMutability": "nonpayable",
      "type": "constructor"
    },
    {
      "constant": false,
      "inputs": [
        {
          "name": "_candidateFactory",
          "type": "address"
        }
      ],
      "name": "setCandidateFactory",
      "outputs": [],
      "payable": false,
      "stateMutability": "nonpayable",
      "type": "function"
    },
    {
      "constant": false,
      "inputs": [
        {
          "name": "ward",
          "type": "int256"
        }
      ],
      "name": "fetchList",
      "outputs": [
        {
          "name": "",
          "type": "uint256"
        }
      ],
      "payable": false,
      "stateMutability": "nonpayable",
      "type": "function"
    },
    {
      "constant": false,
      "inputs": [],
      "name": "createCandidateList",
      "outputs": [
        {
          "name": "",
          "type": "uint256"
        }
      ],
      "payable": false,
      "stateMutability": "nonpayable",
      "type": "function"
    },
    {
      "constant": false,
      "inputs": [
        {
          "name": "candidate",
          "type": "address"
        },
        {
          "name": "voter",
          "type": "address"
        }
      ],
      "name": "vote",
      "outputs": [],
      "payable": false,
      "stateMutability": "nonpayable",
      "type": "function"
    },
    {
      "constant": true,
      "inputs": [
        {
          "name": "ward",
          "type": "int256"
        }
      ],
      "name": "displayelected",
      "outputs": [
        {
          "name": "",
          "type": "address"
        }
      ],
      "payable": false,
      "stateMutability": "view",
      "type": "function"
    },
    {
      "constant": true,
      "inputs": [],
      "name": "returnballotaddress",
      "outputs": [
        {
          "name": "",
          "type": "address"
        }
      ],
      "payable": false,
      "stateMutability": "view",
      "type": "function"
    }
  ],
  "bytecode": "0x608060405273bb2869dd663544dae1efa69f010ae11c7e33f3a2600360006101000a81548173ffffffffffffffffffffffffffffffffffffffff021916908373ffffffffffffffffffffffffffffffffffffffff16021790555034801561006557600080fd5b50600360009054906101000a900473ffffffffffffffffffffffffffffffffffffffff1673ffffffffffffffffffffffffffffffffffffffff163373ffffffffffffffffffffffffffffffffffffffff1614151561012b576040517f08c379a00000000000000000000000000000000000000000000000000000000081526004018080602001828103825260148152602001807f4d7573742062652061646d696e2042616c6c6f7400000000000000000000000081525060200191505060405180910390fd5b610ec98061013a6000396000f3fe608060405260043610610083576000357c0100000000000000000000000000000000000000000000000000000000900463ffffffff168063047f52f21461008857806310b013c4146100d95780631afa74e5146101285780632b070c0c146101995780636bdb865e146101c45780639f5c32001461021b578063b13c744b14610296575b600080fd5b34801561009457600080fd5b506100d7600480360360208110156100ab57600080fd5b81019080803573ffffffffffffffffffffffffffffffffffffffff1690602001909291905050506103bd565b005b3480156100e557600080fd5b50610112600480360360208110156100fc57600080fd5b8101908080359060200190929190505050610400565b6040518082815260200191505060405180910390f35b34801561013457600080fd5b506101976004803603604081101561014b57600080fd5b81019080803573ffffffffffffffffffffffffffffffffffffffff169060200190929190803573ffffffffffffffffffffffffffffffffffffffff16906020019092919050505061054b565b005b3480156101a557600080fd5b506101ae610653565b6040518082815260200191505060405180910390f35b3480156101d057600080fd5b506101d96108b4565b604051808273ffffffffffffffffffffffffffffffffffffffff1673ffffffffffffffffffffffffffffffffffffffff16815260200191505060405180910390f35b34801561022757600080fd5b506102546004803603602081101561023e57600080fd5b81019080803590602001909291905050506108bc565b604051808273ffffffffffffffffffffffffffffffffffffffff1673ffffffffffffffffffffffffffffffffffffffff16815260200191505060405180910390f35b3480156102a257600080fd5b506102cf600480360360208110156102b957600080fd5b8101908080359060200190929190505050610ba0565b604051808060200184815260200180602001838103835286818151815260200191508051906020019080838360005b838110156103195780820151818401526020810190506102fe565b50505050905090810190601f1680156103465780820380516001836020036101000a031916815260200191505b50838103825284818151815260200191508051906020019080838360005b8381101561037f578082015181840152602081019050610364565b50505050905090810190601f1680156103ac5780820380516001836020036101000a031916815260200191505b509550505050505060405180910390f35b806000806101000a81548173ffffffffffffffffffffffffffffffffffffffff021916908373ffffffffffffffffffffffffffffffffffffffff16021790555050565b6000806000809054906101000a900473ffffffffffffffffffffffffffffffffffffffff1690508073ffffffffffffffffffffffffffffffffffffffff1663cebabf47846040518263ffffffff167c01000000000000000000000000000000000000000000000000000000000281526004018082815260200191505060006040518083038186803b15801561049457600080fd5b505afa1580156104a8573d6000803e3d6000fd5b505050506040513d6000823e3d601f19601f8201168201806040525060208110156104d257600080fd5b8101908080516401000000008111156104ea57600080fd5b8281019050602081018481111561050057600080fd5b815185602082028301116401000000008211171561051d57600080fd5b50509291905050506002908051906020019061053a929190610d09565b50610543610653565b915050919050565b600082905060008290508073ffffffffffffffffffffffffffffffffffffffff1663632a9a526040518163ffffffff167c0100000000000000000000000000000000000000000000000000000000028152600401600060405180830381600087803b1580156105b957600080fd5b505af11580156105cd573d6000803e3d6000fd5b505050508173ffffffffffffffffffffffffffffffffffffffff1663ad4189b96040518163ffffffff167c0100000000000000000000000000000000000000000000000000000000028152600401600060405180830381600087803b15801561063557600080fd5b505af1158015610649573d6000803e3d6000fd5b5050505050505050565b600080600280549050905060008090505b818160ff1610156108a757600060028260ff1681548110151561068357fe5b9060005260206000200160009054906101000a900473ffffffffffffffffffffffffffffffffffffffff1690506106b8610d93565b8173ffffffffffffffffffffffffffffffffffffffff1663f86ac8356040518163ffffffff167c010000000000000000000000000000000000000000000000000000000002815260040160006040518083038186803b15801561071a57600080fd5b505afa15801561072e573d6000803e3d6000fd5b505050506040513d6000823e3d601f19601f82011682018060405250606081101561075857600080fd5b81019080805164010000000081111561077057600080fd5b8281019050602081018481111561078657600080fd5b81518560018202830111640100000000821117156107a357600080fd5b50509291906020018051906020019092919080516401000000008111156107c957600080fd5b828101905060208101848111156107df57600080fd5b81518560018202830111640100000000821117156107fc57600080fd5b50509291905050508292508090508360000184602001856040018390528381525083905250505060018190806001815401808255809150509060018203906000526020600020906003020160009091929091909150600082015181600001908051906020019061086d929190610db5565b50602082015181600101556040820151816002019080519060200190610894929190610db5565b5050505050508080600101915050610664565b5060018054905091505090565b600030905090565b6000606060008060009054906101000a900473ffffffffffffffffffffffffffffffffffffffff1690508073ffffffffffffffffffffffffffffffffffffffff1663cebabf47856040518263ffffffff167c01000000000000000000000000000000000000000000000000000000000281526004018082815260200191505060006040518083038186803b15801561095357600080fd5b505afa158015610967573d6000803e3d6000fd5b505050506040513d6000823e3d601f19601f82011682018060405250602081101561099157600080fd5b8101908080516401000000008111156109a957600080fd5b828101905060208101848111156109bf57600080fd5b81518560208202830111640100000000821117156109dc57600080fd5b505092919050505091506000825190506000809050600080600090505b838160ff161015610b92576000868260ff16815181101515610a1757fe5b906020019060200201519050838173ffffffffffffffffffffffffffffffffffffffff16631f5126c26040518163ffffffff167c010000000000000000000000000000000000000000000000000000000002815260040160206040518083038186803b158015610a8657600080fd5b505afa158015610a9a573d6000803e3d6000fd5b505050506040513d6020811015610ab057600080fd5b81019080805190602001909291905050501315610b84578073ffffffffffffffffffffffffffffffffffffffff16631f5126c26040518163ffffffff167c010000000000000000000000000000000000000000000000000000000002815260040160206040518083038186803b158015610b2957600080fd5b505afa158015610b3d573d6000803e3d6000fd5b505050506040513d6020811015610b5357600080fd5b81019080805190602001909291905050509350868260ff16815181101515610b7757fe5b9060200190602002015192505b5080806001019150506109f9565b508095505050505050919050565b600181815481101515610baf57fe5b9060005260206000209060030201600091509050806000018054600181600116156101000203166002900480601f016020809104026020016040519081016040528092919081815260200182805460018160011615610100020316600290048015610c5b5780601f10610c3057610100808354040283529160200191610c5b565b820191906000526020600020905b815481529060010190602001808311610c3e57829003601f168201915b505050505090806001015490806002018054600181600116156101000203166002900480601f016020809104026020016040519081016040528092919081815260200182805460018160011615610100020316600290048015610cff5780601f10610cd457610100808354040283529160200191610cff565b820191906000526020600020905b815481529060010190602001808311610ce257829003601f168201915b5050505050905083565b828054828255906000526020600020908101928215610d82579160200282015b82811115610d815782518260006101000a81548173ffffffffffffffffffffffffffffffffffffffff021916908373ffffffffffffffffffffffffffffffffffffffff16021790555091602001919060010190610d29565b5b509050610d8f9190610e35565b5090565b6060604051908101604052806060815260200160008152602001606081525090565b828054600181600116156101000203166002900490600052602060002090601f016020900481019282601f10610df657805160ff1916838001178555610e24565b82800160010185558215610e24579182015b82811115610e23578251825591602001919060010190610e08565b5b509050610e319190610e78565b5090565b610e7591905b80821115610e7157600081816101000a81549073ffffffffffffffffffffffffffffffffffffffff021916905550600101610e3b565b5090565b90565b610e9a91905b80821115610e96576000816000905550600101610e7e565b5090565b9056fea165627a7a723058208adb47e02d0a98a08019fd5b19f8f8f8a15f7dc1c2afa074e25b2ca8a9dd1a220029",
  "source": "pragma solidity >=0.4.22 <0.6.0;\r\nimport \"./CandidateFactory.sol\";\r\nimport \"./Voter.sol\";\r\n\r\ncontract Ballot{\r\n    address candidateFactoryAddress;\r\n    struct candidateDetails{\r\n        string name;\r\n        uint256 aadhar;\r\n        string partyname;\r\n    }\r\n    \r\n    candidateDetails[] public candidateList;\r\n    address[] candidateAddressList;\r\n    address adminAddress = address(0xbB2869dd663544daE1EfA69F010aE11C7E33f3a2);\r\n    \r\n    constructor() public restricted{\r\n    }\r\n\r\n    function setCandidateFactory(address _candidateFactory) public{\r\n        candidateFactoryAddress = address(_candidateFactory);\r\n    }\r\n    \r\n    function fetchList(int ward) public returns(uint256){\r\n        CandidateFactory factory = CandidateFactory(candidateFactoryAddress);\r\n        candidateAddressList = factory.returnCandidateList(ward);\r\n        return createCandidateList();\r\n    } \r\n\r\n    function createCandidateList() public returns(uint256){\r\n        uint256 size = candidateAddressList.length;\r\n        for(uint8 i=0;i<size;i++)\r\n        {\r\n            Candidate object = Candidate(candidateAddressList[i]);\r\n            candidateDetails memory d;\r\n            (d.name, d.aadhar, d.partyname)  = object.returnCandidateInfo();\r\n            candidateList.push(d);\r\n        }\r\n        return (candidateList.length);\r\n    }\r\n    \r\n    function vote(address candidate, address voter) public{\r\n        Candidate c = Candidate(candidate);\r\n        Voter v = Voter(voter);\r\n        v.vote();\r\n        c.incCount();\r\n    }\r\n    \r\n    function displayelected(int ward) public view returns(address){\r\n        address[] memory wardlist;\r\n        CandidateFactory factory = CandidateFactory(candidateFactoryAddress);\r\n        wardlist = factory.returnCandidateList(ward);\r\n         uint256 size = wardlist.length;\r\n         int max=0;\r\n         address returning_address;\r\n        for(uint8 i=0;i<size;i++)\r\n        {\r\n            Candidate object1 = Candidate(wardlist[i]);\r\n            if(object1.returnvotecount() > max)\r\n            {\r\n                max = object1.returnvotecount();\r\n                returning_address = wardlist[i];\r\n            }\r\n        }\r\n        return returning_address;\r\n    }\r\n    \r\n    function returnballotaddress() public view returns(address){\r\n        return address(this);\r\n    }\r\n    \r\n    modifier restricted(){\r\n        require(msg.sender == adminAddress, \"Must be admin Ballot\");\r\n        _;\r\n    }\r\n\r\n}",
  "sourcePath": "c:/Users/mayan/OneDrive/Desktop/asdf/blockvote/contracts/Ballot.sol",
  "compiler": {
    "name": "solc",
    "version": "0.5.0+commit.1d4f565a.Emscripten.clang"
  },
  "schemaVersion": "3.0.11",
  "updatedAt": "2019-08-21T10:39:30.829Z",
  "devdoc": {
    "methods": {}
  },
  "userdoc": {
    "methods": {}
  }
}