{
  "contractName": "CandidateFactory",
  "abi": [
    {
      "inputs": [],
      "payable": false,
      "stateMutability": "nonpayable",
      "type": "constructor"
    },
    {
      "constant": false,
      "inputs": [
        {
          "name": "_voterFactoryAddress",
          "type": "address"
        }
      ],
      "name": "setVoterFactoryAddress",
      "outputs": [],
      "payable": false,
      "stateMutability": "nonpayable",
      "type": "function"
    },
    {
      "constant": false,
      "inputs": [
        {
          "name": "_ballotAddress",
          "type": "address"
        }
      ],
      "name": "setBallotAddress",
      "outputs": [],
      "payable": false,
      "stateMutability": "nonpayable",
      "type": "function"
    },
    {
      "constant": false,
      "inputs": [
        {
          "name": "aadhaar",
          "type": "uint256"
        },
        {
          "name": "day",
          "type": "uint8"
        },
        {
          "name": "month",
          "type": "uint8"
        },
        {
          "name": "year",
          "type": "uint16"
        },
        {
          "name": "name",
          "type": "string"
        },
        {
          "name": "ward",
          "type": "int256"
        },
        {
          "name": "hasPoliceCase",
          "type": "bool"
        },
        {
          "name": "partySymbol",
          "type": "string"
        }
      ],
      "name": "createCandidate",
      "outputs": [
        {
          "name": "",
          "type": "address"
        }
      ],
      "payable": false,
      "stateMutability": "nonpayable",
      "type": "function"
    },
    {
      "constant": true,
      "inputs": [
        {
          "name": "ward",
          "type": "int256"
        },
        {
          "name": "partySymbol",
          "type": "string"
        }
      ],
      "name": "checkIfPartyExists",
      "outputs": [
        {
          "name": "",
          "type": "bool"
        }
      ],
      "payable": false,
      "stateMutability": "view",
      "type": "function"
    },
    {
      "constant": true,
      "inputs": [
        {
          "name": "ward",
          "type": "int256"
        }
      ],
      "name": "returnCandidateList",
      "outputs": [
        {
          "name": "",
          "type": "address[]"
        }
      ],
      "payable": false,
      "stateMutability": "view",
      "type": "function"
    },
    {
      "constant": true,
      "inputs": [],
      "name": "returnAddress",
      "outputs": [
        {
          "name": "",
          "type": "address"
        }
      ],
      "payable": false,
      "stateMutability": "view",
      "type": "function"
    }
  ],
  "bytecode": "0x608060405273bb2869dd663544dae1efa69f010ae11c7e33f3a26000806101000a81548173ffffffffffffffffffffffffffffffffffffffff021916908373ffffffffffffffffffffffffffffffffffffffff16021790555034801561006457600080fd5b506000809054906101000a900473ffffffffffffffffffffffffffffffffffffffff1673ffffffffffffffffffffffffffffffffffffffff163373ffffffffffffffffffffffffffffffffffffffff16141515610129576040517f08c379a00000000000000000000000000000000000000000000000000000000081526004018080602001828103825260168152602001807f4d757374206265206f776e657220696e20566f7465720000000000000000000081525060200191505060405180910390fd5b611ac7806101386000396000f3fe6080604052600436106200007f576000357c0100000000000000000000000000000000000000000000000000000000900463ffffffff1680633be5b49714620000845780633d158ac314620000d95780638b3f59b5146200012e57806393991cf3146200021f578063943640c31462000411578063cebabf47146200046b575b600080fd5b3480156200009157600080fd5b50620000d760048036036020811015620000aa57600080fd5b81019080803573ffffffffffffffffffffffffffffffffffffffff16906020019092919050505062000501565b005b348015620000e657600080fd5b506200012c60048036036020811015620000ff57600080fd5b81019080803573ffffffffffffffffffffffffffffffffffffffff1690602001909291905050506200060a565b005b3480156200013b57600080fd5b5062000205600480360360408110156200015457600080fd5b8101908080359060200190929190803590602001906401000000008111156200017c57600080fd5b8201836020820111156200018f57600080fd5b80359060200191846001830284011164010000000083111715620001b257600080fd5b91908080601f016020809104026020016040519081016040528093929190818152602001838380828437600081840152601f19601f82011690508083019250505050505050919291929050505062000713565b604051808215151515815260200191505060405180910390f35b3480156200022c57600080fd5b50620003cf60048036036101008110156200024657600080fd5b8101908080359060200190929190803560ff169060200190929190803560ff169060200190929190803561ffff169060200190929190803590602001906401000000008111156200029657600080fd5b820183602082011115620002a957600080fd5b80359060200191846001830284011164010000000083111715620002cc57600080fd5b91908080601f016020809104026020016040519081016040528093929190818152602001838380828437600081840152601f19601f82011690508083019250505050505050919291929080359060200190929190803515159060200190929190803590602001906401000000008111156200034657600080fd5b8201836020820111156200035957600080fd5b803590602001918460018302840111640100000000831117156200037c57600080fd5b91908080601f016020809104026020016040519081016040528093929190818152602001838380828437600081840152601f19601f82011690508083019250505050505050919291929050505062000920565b604051808273ffffffffffffffffffffffffffffffffffffffff1673ffffffffffffffffffffffffffffffffffffffff16815260200191505060405180910390f35b3480156200041e57600080fd5b506200042962000de1565b604051808273ffffffffffffffffffffffffffffffffffffffff1673ffffffffffffffffffffffffffffffffffffffff16815260200191505060405180910390f35b3480156200047857600080fd5b50620004a8600480360360208110156200049157600080fd5b810190808035906020019092919050505062000de9565b6040518080602001828103825283818151815260200191508051906020019060200280838360005b83811015620004ed578082015181840152602081019050620004d0565b505050509050019250505060405180910390f35b6000809054906101000a900473ffffffffffffffffffffffffffffffffffffffff1673ffffffffffffffffffffffffffffffffffffffff163373ffffffffffffffffffffffffffffffffffffffff16141515620005c6576040517f08c379a00000000000000000000000000000000000000000000000000000000081526004018080602001828103825260168152602001807f4d757374206265206f776e657220696e20566f7465720000000000000000000081525060200191505060405180910390fd5b80600460006101000a81548173ffffffffffffffffffffffffffffffffffffffff021916908373ffffffffffffffffffffffffffffffffffffffff16021790555050565b6000809054906101000a900473ffffffffffffffffffffffffffffffffffffffff1673ffffffffffffffffffffffffffffffffffffffff163373ffffffffffffffffffffffffffffffffffffffff16141515620006cf576040517f08c379a00000000000000000000000000000000000000000000000000000000081526004018080602001828103825260168152602001807f4d757374206265206f776e657220696e20566f7465720000000000000000000081525060200191505060405180910390fd5b80600160006101000a81548173ffffffffffffffffffffffffffffffffffffffff021916908373ffffffffffffffffffffffffffffffffffffffff16021790555050565b600080600090505b60036000858152602001908152602001600020805490508110156200091457606060036000868152602001908152602001600020828154811015156200075d57fe5b906000526020600020018054600181600116156101000203166002900480601f016020809104026020016040519081016040528092919081815260200182805460018160011615610100020316600290048015620007ff5780601f10620007d357610100808354040283529160200191620007ff565b820191906000526020600020905b815481529060010190602001808311620007e157829003601f168201915b50505050509050836040516020018082805190602001908083835b6020831015156200084157805182526020820191506020810190506020830392506200081a565b6001836020036101000a03801982511681845116808217855250505050505090500191505060405160208183030381529060405280519060200120816040516020018082805190602001908083835b602083101515620008b7578051825260208201915060208101905060208303925062000890565b6001836020036101000a03801982511681845116808217855250505050505090500191505060405160208183030381529060405280519060200120141562000905576001925050506200091a565b5080806001019150506200071b565b50600090505b92915050565b60008073ffffffffffffffffffffffffffffffffffffffff16600460009054906101000a900473ffffffffffffffffffffffffffffffffffffffff1673ffffffffffffffffffffffffffffffffffffffff1614151515620009e9576040517f08c379a000000000000000000000000000000000000000000000000000000000815260040180806020018281038252601a8152602001807f62616c6c6f7441646472657373206e6f74206465636c6172656400000000000081525060200191505060405180910390fd5b60011515620009f9858462000713565b15151415151562000a72576040517f08c379a00000000000000000000000000000000000000000000000000000000081526004018080602001828103825260148152602001807f506172747920616c72656164792065786973747300000000000000000000000081525060200191505060405180910390fd5b6000898989898989898933600460009054906101000a900473ffffffffffffffffffffffffffffffffffffffff1662000aaa62000e8c565b808b81526020018a60ff1660ff1681526020018960ff1660ff1681526020018861ffff1661ffff1681526020018060200187815260200186151515158152602001806020018573ffffffffffffffffffffffffffffffffffffffff1673ffffffffffffffffffffffffffffffffffffffff1681526020018473ffffffffffffffffffffffffffffffffffffffff1673ffffffffffffffffffffffffffffffffffffffff168152602001838103835289818151815260200191508051906020019080838360005b8381101562000b8d57808201518184015260208101905062000b70565b50505050905090810190601f16801562000bbb5780820380516001836020036101000a031916815260200191505b50838103825286818151815260200191508051906020019080838360005b8381101562000bf657808201518184015260208101905062000bd9565b50505050905090810190601f16801562000c245780820380516001836020036101000a031916815260200191505b509c50505050505050505050505050604051809103906000f08015801562000c50573d6000803e3d6000fd5b509050600260008681526020019081526020016000208190806001815401808255809150509060018203906000526020600020016000909192909190916101000a81548173ffffffffffffffffffffffffffffffffffffffff021916908373ffffffffffffffffffffffffffffffffffffffff160217905550506003600086815260200190815260200160002083908060018154018082558091505090600182039060005260206000200160009091929091909150908051906020019062000d1a92919062000e9d565b50508073ffffffffffffffffffffffffffffffffffffffff1663047f52f2306040518263ffffffff167c0100000000000000000000000000000000000000000000000000000000028152600401808273ffffffffffffffffffffffffffffffffffffffff1673ffffffffffffffffffffffffffffffffffffffff168152602001915050600060405180830381600087803b15801562000db857600080fd5b505af115801562000dcd573d6000803e3d6000fd5b505050508091505098975050505050505050565b600030905090565b60606002600083815260200190815260200160002080548060200260200160405190810160405280929190818152602001828054801562000e8057602002820191906000526020600020905b8160009054906101000a900473ffffffffffffffffffffffffffffffffffffffff1673ffffffffffffffffffffffffffffffffffffffff168152602001906001019080831162000e35575b50505050509050919050565b604051610b4f8062000f4d83390190565b828054600181600116156101000203166002900490600052602060002090601f016020900481019282601f1062000ee057805160ff191683800117855562000f11565b8280016001018555821562000f11579182015b8281111562000f1057825182559160200191906001019062000ef3565b5b50905062000f20919062000f24565b5090565b62000f4991905b8082111562000f4557600081600090555060010162000f2b565b5090565b9056fe608060405234801561001057600080fd5b50604051610b4f380380610b4f833981018060405261014081101561003457600080fd5b8101908080519060200190929190805190602001909291908051906020019092919080519060200190929190805164010000000081111561007457600080fd5b8281019050602081018481111561008a57600080fd5b81518560018202830111640100000000821117156100a757600080fd5b5050929190602001805190602001909291908051906020019092919080516401000000008111156100d757600080fd5b828101905060208101848111156100ed57600080fd5b815185600182028301116401000000008211171561010a57600080fd5b5050929190602001805190602001909291908051906020019092919050505089600080018190555088600060010160000160036101000a81548160ff021916908360ff16021790555086600060010160000160006101000a81548161ffff021916908361ffff16021790555087600060010160000160026101000a81548160ff021916908360ff16021790555085600060020190805190602001906101b09291906102ab565b50846000600301819055506000806007018190555083600060040160006101000a81548160ff02191690831515021790555082600060050190805190602001906101fb9291906102ab565b506001600060060160006101000a81548160ff02191690831515021790555081600960006101000a81548173ffffffffffffffffffffffffffffffffffffffff021916908373ffffffffffffffffffffffffffffffffffffffff16021790555080600a60006101000a81548173ffffffffffffffffffffffffffffffffffffffff021916908373ffffffffffffffffffffffffffffffffffffffff16021790555050505050505050505050610350565b828054600181600116156101000203166002900490600052602060002090601f016020900481019282601f106102ec57805160ff191683800117855561031a565b8280016001018555821561031a579182015b828111156103195782518255916020019190600101906102fe565b5b509050610327919061032b565b5090565b61034d91905b80821115610349576000816000905550600101610331565b5090565b90565b6107f08061035f6000396000f3fe608060405260043610610083576000357c0100000000000000000000000000000000000000000000000000000000900463ffffffff168063047f52f2146100885780631f5126c2146100d95780635b26317c14610104578063943640c314610194578063992ac9fa146101eb578063ad4189b914610242578063f86ac83514610259575b600080fd5b34801561009457600080fd5b506100d7600480360360208110156100ab57600080fd5b81019080803573ffffffffffffffffffffffffffffffffffffffff16906020019092919050505061035c565b005b3480156100e557600080fd5b506100ee6103a0565b6040518082815260200191505060405180910390f35b34801561011057600080fd5b506101196103ac565b6040518080602001828103825283818151815260200191508051906020019080838360005b8381101561015957808201518184015260208101905061013e565b50505050905090810190601f1680156101865780820380516001836020036101000a031916815260200191505b509250505060405180910390f35b3480156101a057600080fd5b506101a961053c565b604051808273ffffffffffffffffffffffffffffffffffffffff1673ffffffffffffffffffffffffffffffffffffffff16815260200191505060405180910390f35b3480156101f757600080fd5b50610200610544565b604051808273ffffffffffffffffffffffffffffffffffffffff1673ffffffffffffffffffffffffffffffffffffffff16815260200191505060405180910390f35b34801561024e57600080fd5b5061025761056a565b005b34801561026557600080fd5b5061026e61066c565b604051808060200184815260200180602001838103835286818151815260200191508051906020019080838360005b838110156102b857808201518184015260208101905061029d565b50505050905090810190601f1680156102e55780820380516001836020036101000a031916815260200191505b50838103825284818151815260200191508051906020019080838360005b8381101561031e578082015181840152602081019050610303565b50505050905090810190601f16801561034b5780820380516001836020036101000a031916815260200191505b509550505050505060405180910390f35b80600860006101000a81548173ffffffffffffffffffffffffffffffffffffffff021916908373ffffffffffffffffffffffffffffffffffffffff16021790555050565b60008060070154905090565b6060600960009054906101000a900473ffffffffffffffffffffffffffffffffffffffff1673ffffffffffffffffffffffffffffffffffffffff163373ffffffffffffffffffffffffffffffffffffffff16141515610499576040517f08c379a00000000000000000000000000000000000000000000000000000000081526004018080602001828103825260268152602001807f4d75737420626520616363657373656420627920766f74657220696e2043616e81526020017f646964617465000000000000000000000000000000000000000000000000000081525060400191505060405180910390fd5b60006005018054600181600116156101000203166002900480601f0160208091040260200160405190810160405280929190818152602001828054600181600116156101000203166002900480156105325780601f1061050757610100808354040283529160200191610532565b820191906000526020600020905b81548152906001019060200180831161051557829003601f168201915b5050505050905090565b600030905090565b600960009054906101000a900473ffffffffffffffffffffffffffffffffffffffff1681565b600a60009054906101000a900473ffffffffffffffffffffffffffffffffffffffff1673ffffffffffffffffffffffffffffffffffffffff163373ffffffffffffffffffffffffffffffffffffffff16141515610655576040517f08c379a00000000000000000000000000000000000000000000000000000000081526004018080602001828103825260218152602001807f436f756e74206d75737420626520696e637265617365642062792062616c6c6f81526020017f740000000000000000000000000000000000000000000000000000000000000081525060400191505060405180910390fd5b600060070160008154809291906001019190505550565b606060006060600060020160008001546000600501828054600181600116156101000203166002900480601f0160208091040260200160405190810160405280929190818152602001828054600181600116156101000203166002900480156107165780601f106106eb57610100808354040283529160200191610716565b820191906000526020600020905b8154815290600101906020018083116106f957829003601f168201915b50505050509250808054600181600116156101000203166002900480601f0160208091040260200160405190810160405280929190818152602001828054600181600116156101000203166002900480156107b25780601f10610787576101008083540402835291602001916107b2565b820191906000526020600020905b81548152906001019060200180831161079557829003601f168201915b5050505050905092509250925090919256fea165627a7a72305820f137b2110d9201ec88bf2a2e5939a4fe0293e95e4bdbffeb854dfe3dee1e3ac60029a165627a7a723058207d85a0280e42a59f14d6253345c25bdf348176769a7410858fda10022c74628d0029",
  "source": "pragma solidity >=0.4.22 <0.6.0;\r\nimport \"./Candidate.sol\";\r\n\r\ncontract CandidateFactory{\r\n    address private owner=address(0xbB2869dd663544daE1EfA69F010aE11C7E33f3a2); // Admin Address\r\n    address private voterFactoryAddress;\r\n    // mapping(uint256=>address) candidatesList2;\r\n    mapping(int=>address[]) candidatesList;\r\n    mapping(int=>string[]) partyList;\r\n    address ballotAddress;\r\n    \r\n    constructor() public restricted{\r\n    }\r\n\r\n    function setVoterFactoryAddress(address _voterFactoryAddress) public restricted{\r\n        voterFactoryAddress = address(_voterFactoryAddress);\r\n    }\r\n    \r\n    function setBallotAddress(address _ballotAddress) public restricted{\r\n        ballotAddress = address(_ballotAddress);\r\n    }\r\n    \r\n    function createCandidate(uint256 aadhaar, uint8 day, uint8 month, uint16 year, string memory name, int ward, bool hasPoliceCase, string memory partySymbol) public returns(address) {\r\n        require(ballotAddress != address(0x0), \"ballotAddress not declared\");\r\n        require(checkIfPartyExists(ward, partySymbol) != true, \"Party already exists\");\r\n        Candidate newCandidate = new Candidate(aadhaar, day, month, year, name, ward, hasPoliceCase, partySymbol, msg.sender, ballotAddress);\r\n        // candidatesList2[aadhaar] = address(newCandidate);\r\n        candidatesList[ward].push(address(newCandidate));\r\n        partyList[ward].push(partySymbol);\r\n        newCandidate.setCandidateFactory(address(this));\r\n        return address(newCandidate);\r\n    }\r\n\r\n    function checkIfPartyExists(int ward, string memory partySymbol) public view returns(bool){\r\n        for (uint256 i=0; i<partyList[ward].length; i++){\r\n            string memory symbol = partyList[ward][i];\r\n            if (keccak256(abi.encodePacked((symbol))) == keccak256(abi.encodePacked((partySymbol)))) return true;\r\n        }\r\n        return false;\r\n    }\r\n    \r\n    function returnCandidateList(int ward) public view returns(address[] memory){\r\n        return candidatesList[ward];\r\n    }\r\n    \r\n    function returnAddress() public view returns (address){\r\n        return address(this);\r\n    }\r\n    \r\n    modifier restricted() {\r\n        require(msg.sender == owner, \"Must be owner in Voter\");\r\n        _;\r\n    }\r\n    \r\n    modifier restrictedVoterContract() {\r\n        require (voterFactoryAddress != address(0x0), \"voterFactoryAddress not set: CandidateFactory\");\r\n        require(msg.sender == voterFactoryAddress, \"Must be owner in CandidateFactory\");\r\n        _;\r\n    }\r\n}",
  "sourcePath": "c:\\Users\\mayan\\OneDrive\\Desktop\\asdf\\blockvote\\contracts\\CandidateFactory.sol",
  "compiler": {
    "name": "solc",
    "version": "0.5.0+commit.1d4f565a.Emscripten.clang"
  },
  "schemaVersion": "3.0.11",
  "updatedAt": "2019-08-21T10:39:30.485Z",
  "devdoc": {
    "methods": {}
  },
  "userdoc": {
    "methods": {}
  }
}