{
  "contractName": "Candidate",
  "abi": [
    {
      "constant": true,
      "inputs": [],
      "name": "voterAddress",
      "outputs": [
        {
          "name": "",
          "type": "address"
        }
      ],
      "payable": false,
      "stateMutability": "view",
      "type": "function"
    },
    {
      "inputs": [
        {
          "name": "aadhaar",
          "type": "uint256"
        },
        {
          "name": "day",
          "type": "uint8"
        },
        {
          "name": "month",
          "type": "uint8"
        },
        {
          "name": "year",
          "type": "uint16"
        },
        {
          "name": "name",
          "type": "string"
        },
        {
          "name": "ward",
          "type": "int256"
        },
        {
          "name": "hasPoliceCase",
          "type": "bool"
        },
        {
          "name": "partySymbol",
          "type": "string"
        },
        {
          "name": "_voterAddress",
          "type": "address"
        },
        {
          "name": "_ballotaddress",
          "type": "address"
        }
      ],
      "payable": false,
      "stateMutability": "nonpayable",
      "type": "constructor"
    },
    {
      "constant": true,
      "inputs": [],
      "name": "displayParty",
      "outputs": [
        {
          "name": "",
          "type": "string"
        }
      ],
      "payable": false,
      "stateMutability": "view",
      "type": "function"
    },
    {
      "constant": false,
      "inputs": [
        {
          "name": "_candidateFactory",
          "type": "address"
        }
      ],
      "name": "setCandidateFactory",
      "outputs": [],
      "payable": false,
      "stateMutability": "nonpayable",
      "type": "function"
    },
    {
      "constant": false,
      "inputs": [],
      "name": "incCount",
      "outputs": [],
      "payable": false,
      "stateMutability": "nonpayable",
      "type": "function"
    },
    {
      "constant": true,
      "inputs": [],
      "name": "returnCandidateInfo",
      "outputs": [
        {
          "name": "",
          "type": "string"
        },
        {
          "name": "",
          "type": "uint256"
        },
        {
          "name": "",
          "type": "string"
        }
      ],
      "payable": false,
      "stateMutability": "view",
      "type": "function"
    },
    {
      "constant": true,
      "inputs": [],
      "name": "returnAddress",
      "outputs": [
        {
          "name": "",
          "type": "address"
        }
      ],
      "payable": false,
      "stateMutability": "view",
      "type": "function"
    },
    {
      "constant": true,
      "inputs": [],
      "name": "returnvotecount",
      "outputs": [
        {
          "name": "",
          "type": "int256"
        }
      ],
      "payable": false,
      "stateMutability": "view",
      "type": "function"
    }
  ],
  "bytecode": "0x608060405234801561001057600080fd5b50604051610b4f380380610b4f833981018060405261014081101561003457600080fd5b8101908080519060200190929190805190602001909291908051906020019092919080519060200190929190805164010000000081111561007457600080fd5b8281019050602081018481111561008a57600080fd5b81518560018202830111640100000000821117156100a757600080fd5b5050929190602001805190602001909291908051906020019092919080516401000000008111156100d757600080fd5b828101905060208101848111156100ed57600080fd5b815185600182028301116401000000008211171561010a57600080fd5b5050929190602001805190602001909291908051906020019092919050505089600080018190555088600060010160000160036101000a81548160ff021916908360ff16021790555086600060010160000160006101000a81548161ffff021916908361ffff16021790555087600060010160000160026101000a81548160ff021916908360ff16021790555085600060020190805190602001906101b09291906102ab565b50846000600301819055506000806007018190555083600060040160006101000a81548160ff02191690831515021790555082600060050190805190602001906101fb9291906102ab565b506001600060060160006101000a81548160ff02191690831515021790555081600960006101000a81548173ffffffffffffffffffffffffffffffffffffffff021916908373ffffffffffffffffffffffffffffffffffffffff16021790555080600a60006101000a81548173ffffffffffffffffffffffffffffffffffffffff021916908373ffffffffffffffffffffffffffffffffffffffff16021790555050505050505050505050610350565b828054600181600116156101000203166002900490600052602060002090601f016020900481019282601f106102ec57805160ff191683800117855561031a565b8280016001018555821561031a579182015b828111156103195782518255916020019190600101906102fe565b5b509050610327919061032b565b5090565b61034d91905b80821115610349576000816000905550600101610331565b5090565b90565b6107f08061035f6000396000f3fe608060405260043610610083576000357c0100000000000000000000000000000000000000000000000000000000900463ffffffff168063047f52f2146100885780631f5126c2146100d95780635b26317c14610104578063943640c314610194578063992ac9fa146101eb578063ad4189b914610242578063f86ac83514610259575b600080fd5b34801561009457600080fd5b506100d7600480360360208110156100ab57600080fd5b81019080803573ffffffffffffffffffffffffffffffffffffffff16906020019092919050505061035c565b005b3480156100e557600080fd5b506100ee6103a0565b6040518082815260200191505060405180910390f35b34801561011057600080fd5b506101196103ac565b6040518080602001828103825283818151815260200191508051906020019080838360005b8381101561015957808201518184015260208101905061013e565b50505050905090810190601f1680156101865780820380516001836020036101000a031916815260200191505b509250505060405180910390f35b3480156101a057600080fd5b506101a961053c565b604051808273ffffffffffffffffffffffffffffffffffffffff1673ffffffffffffffffffffffffffffffffffffffff16815260200191505060405180910390f35b3480156101f757600080fd5b50610200610544565b604051808273ffffffffffffffffffffffffffffffffffffffff1673ffffffffffffffffffffffffffffffffffffffff16815260200191505060405180910390f35b34801561024e57600080fd5b5061025761056a565b005b34801561026557600080fd5b5061026e61066c565b604051808060200184815260200180602001838103835286818151815260200191508051906020019080838360005b838110156102b857808201518184015260208101905061029d565b50505050905090810190601f1680156102e55780820380516001836020036101000a031916815260200191505b50838103825284818151815260200191508051906020019080838360005b8381101561031e578082015181840152602081019050610303565b50505050905090810190601f16801561034b5780820380516001836020036101000a031916815260200191505b509550505050505060405180910390f35b80600860006101000a81548173ffffffffffffffffffffffffffffffffffffffff021916908373ffffffffffffffffffffffffffffffffffffffff16021790555050565b60008060070154905090565b6060600960009054906101000a900473ffffffffffffffffffffffffffffffffffffffff1673ffffffffffffffffffffffffffffffffffffffff163373ffffffffffffffffffffffffffffffffffffffff16141515610499576040517f08c379a00000000000000000000000000000000000000000000000000000000081526004018080602001828103825260268152602001807f4d75737420626520616363657373656420627920766f74657220696e2043616e81526020017f646964617465000000000000000000000000000000000000000000000000000081525060400191505060405180910390fd5b60006005018054600181600116156101000203166002900480601f0160208091040260200160405190810160405280929190818152602001828054600181600116156101000203166002900480156105325780601f1061050757610100808354040283529160200191610532565b820191906000526020600020905b81548152906001019060200180831161051557829003601f168201915b5050505050905090565b600030905090565b600960009054906101000a900473ffffffffffffffffffffffffffffffffffffffff1681565b600a60009054906101000a900473ffffffffffffffffffffffffffffffffffffffff1673ffffffffffffffffffffffffffffffffffffffff163373ffffffffffffffffffffffffffffffffffffffff16141515610655576040517f08c379a00000000000000000000000000000000000000000000000000000000081526004018080602001828103825260218152602001807f436f756e74206d75737420626520696e637265617365642062792062616c6c6f81526020017f740000000000000000000000000000000000000000000000000000000000000081525060400191505060405180910390fd5b600060070160008154809291906001019190505550565b606060006060600060020160008001546000600501828054600181600116156101000203166002900480601f0160208091040260200160405190810160405280929190818152602001828054600181600116156101000203166002900480156107165780601f106106eb57610100808354040283529160200191610716565b820191906000526020600020905b8154815290600101906020018083116106f957829003601f168201915b50505050509250808054600181600116156101000203166002900480601f0160208091040260200160405190810160405280929190818152602001828054600181600116156101000203166002900480156107b25780601f10610787576101008083540402835291602001916107b2565b820191906000526020600020905b81548152906001019060200180831161079557829003601f168201915b5050505050905092509250925090919256fea165627a7a72305820f137b2110d9201ec88bf2a2e5939a4fe0293e95e4bdbffeb854dfe3dee1e3ac60029",
  "source": "pragma solidity >=0.4.22 <0.6.0;\r\n// import \"./Voter.sol\";\r\n\r\ncontract Candidate{\r\n    struct candidateInfo{\r\n        uint256 aadhaar;\r\n        DateTime dob;\r\n        string name;\r\n        int ward;\r\n        bool hasPoliceCase;\r\n        string partySymbol;\r\n        bool isApproved;\r\n        int count;\r\n    }\r\n    struct DateTime {\r\n        uint16 year;\r\n        uint8 month;\r\n        uint8 day;\r\n    }\r\n    candidateInfo candidateDetails;\r\n    address private candidateFactory;\r\n    address public voterAddress;\r\n    address ballotaddress;\r\n    \r\n    constructor(uint256 aadhaar, uint8 day, uint8 month, uint16 year, string memory name, int ward, bool hasPoliceCase, string memory partySymbol, address _voterAddress,address _ballotaddress) public {\r\n        candidateDetails.aadhaar = aadhaar;   \r\n        candidateDetails.dob.day = day;\r\n        candidateDetails.dob.year = year;\r\n        candidateDetails.dob.month = month;\r\n        candidateDetails.name = name;\r\n        candidateDetails.ward = ward;\r\n        candidateDetails.count = 0;\r\n        candidateDetails.hasPoliceCase = hasPoliceCase;\r\n        candidateDetails.partySymbol = partySymbol;\r\n        candidateDetails.isApproved = true;\r\n        voterAddress = address(_voterAddress);\r\n        ballotaddress = address(_ballotaddress);\r\n    }\r\n    \r\n    function displayParty() public view restrictedByVoter returns(string memory){\r\n        return candidateDetails.partySymbol;\r\n    }\r\n    \r\n    function setCandidateFactory(address _candidateFactory) public{\r\n        candidateFactory = address(_candidateFactory);\r\n    }\r\n    \r\n    //This must be called only by ballot\r\n    function incCount() public restrictedByBallot{\r\n        candidateDetails.count++;\r\n    }\r\n    \r\n    function returnCandidateInfo() public view returns(string memory, uint256, string memory){\r\n        return (candidateDetails.name,candidateDetails.aadhaar, candidateDetails.partySymbol);\r\n    }\r\n\r\n    function returnAddress() public view returns (address){\r\n        return address(this);\r\n    }\r\n    \r\n    function returnvotecount() public view returns(int){\r\n        return candidateDetails.count;\r\n    }\r\n    \r\n    modifier restricted() {\r\n        require(msg.sender == candidateFactory, \"Must be created by factory in Candidate\");\r\n        _;\r\n    }\r\n    modifier restrictedByVoter() {\r\n        require(msg.sender == voterAddress, \"Must be accessed by voter in Candidate\");\r\n        _;\r\n    }\r\n    \r\n    modifier restrictedByBallot() {\r\n        require(msg.sender == ballotaddress, \"Count must be increased by ballot\");\r\n        _;\r\n    }\r\n\r\n}",
  "sourcePath": "c:\\Users\\mayan\\OneDrive\\Desktop\\asdf\\blockvote\\contracts\\Candidate.sol",
  "compiler": {
    "name": "solc",
    "version": "0.5.0+commit.1d4f565a.Emscripten.clang"
  },
  "schemaVersion": "3.0.11",
  "updatedAt": "2019-08-21T10:39:28.682Z",
  "devdoc": {
    "methods": {}
  },
  "userdoc": {
    "methods": {}
  }
}