{
  "contractName": "Voter",
  "abi": [
    {
      "constant": true,
      "inputs": [],
      "name": "ballotaddress",
      "outputs": [
        {
          "name": "",
          "type": "address"
        }
      ],
      "payable": false,
      "stateMutability": "view",
      "type": "function"
    },
    {
      "constant": true,
      "inputs": [],
      "name": "candidateFactory",
      "outputs": [
        {
          "name": "",
          "type": "address"
        }
      ],
      "payable": false,
      "stateMutability": "view",
      "type": "function"
    },
    {
      "constant": true,
      "inputs": [],
      "name": "voterFactory",
      "outputs": [
        {
          "name": "",
          "type": "address"
        }
      ],
      "payable": false,
      "stateMutability": "view",
      "type": "function"
    },
    {
      "inputs": [
        {
          "name": "aadhaar",
          "type": "uint256"
        },
        {
          "name": "day",
          "type": "uint8"
        },
        {
          "name": "month",
          "type": "uint8"
        },
        {
          "name": "year",
          "type": "uint16"
        },
        {
          "name": "name",
          "type": "string"
        },
        {
          "name": "ward",
          "type": "int256"
        },
        {
          "name": "mobile",
          "type": "string"
        },
        {
          "name": "_candidateFactoryAdd",
          "type": "address"
        },
        {
          "name": "_voterFactoryAdd",
          "type": "address"
        },
        {
          "name": "_ballotadd",
          "type": "address"
        }
      ],
      "payable": false,
      "stateMutability": "nonpayable",
      "type": "constructor"
    },
    {
      "constant": false,
      "inputs": [
        {
          "name": "hasPoliceCase",
          "type": "bool"
        },
        {
          "name": "partySymbol",
          "type": "string"
        }
      ],
      "name": "becomeCandidate",
      "outputs": [
        {
          "name": "",
          "type": "address"
        }
      ],
      "payable": false,
      "stateMutability": "nonpayable",
      "type": "function"
    },
    {
      "constant": false,
      "inputs": [],
      "name": "vote",
      "outputs": [],
      "payable": false,
      "stateMutability": "nonpayable",
      "type": "function"
    },
    {
      "constant": true,
      "inputs": [],
      "name": "canVote",
      "outputs": [
        {
          "name": "",
          "type": "bool"
        }
      ],
      "payable": false,
      "stateMutability": "view",
      "type": "function"
    },
    {
      "constant": true,
      "inputs": [],
      "name": "displayAadhaar",
      "outputs": [
        {
          "name": "",
          "type": "uint256"
        }
      ],
      "payable": false,
      "stateMutability": "view",
      "type": "function"
    },
    {
      "constant": true,
      "inputs": [],
      "name": "displayHasVoted",
      "outputs": [
        {
          "name": "",
          "type": "bool"
        }
      ],
      "payable": false,
      "stateMutability": "view",
      "type": "function"
    },
    {
      "constant": true,
      "inputs": [],
      "name": "returnAddress",
      "outputs": [
        {
          "name": "",
          "type": "address"
        }
      ],
      "payable": false,
      "stateMutability": "view",
      "type": "function"
    },
    {
      "constant": true,
      "inputs": [],
      "name": "returnVoterInfo",
      "outputs": [
        {
          "name": "aadhaar",
          "type": "uint256"
        },
        {
          "name": "day",
          "type": "uint8"
        },
        {
          "name": "month",
          "type": "uint8"
        },
        {
          "name": "year",
          "type": "uint16"
        },
        {
          "name": "name",
          "type": "string"
        },
        {
          "name": "ward",
          "type": "int256"
        },
        {
          "name": "mobile",
          "type": "string"
        },
        {
          "name": "hasVoted",
          "type": "bool"
        },
        {
          "name": "isCandidate",
          "type": "bool"
        },
        {
          "name": "candidateAddress",
          "type": "address"
        }
      ],
      "payable": false,
      "stateMutability": "view",
      "type": "function"
    }
  ],
  "bytecode": "0x60806040523480156200001157600080fd5b50604051620011f3380380620011f383398101806040526101408110156200003857600080fd5b810190808051906020019092919080519060200190929190805190602001909291908051906020019092919080516401000000008111156200007957600080fd5b828101905060208101848111156200009057600080fd5b8151856001820283011164010000000082111715620000ae57600080fd5b5050929190602001805190602001909291908051640100000000811115620000d557600080fd5b82810190506020810184811115620000ec57600080fd5b81518560018202830111640100000000821117156200010a57600080fd5b505092919060200180519060200190929190805190602001909291908051906020019092919050505089600080018190555088600060010160000160036101000a81548160ff021916908360ff16021790555086600060010160000160006101000a81548161ffff021916908361ffff16021790555087600060010160000160026101000a81548160ff021916908360ff1602179055508560006002019080519060200190620001bc92919062000334565b50846000600301819055508360006004019080519060200190620001e292919062000334565b5060008060050160006101000a81548160ff02191690831515021790555060008060050160016101000a81548160ff02191690831515021790555060008060050160026101000a81548173ffffffffffffffffffffffffffffffffffffffff021916908373ffffffffffffffffffffffffffffffffffffffff16021790555082600660006101000a81548173ffffffffffffffffffffffffffffffffffffffff021916908373ffffffffffffffffffffffffffffffffffffffff16021790555081600760006101000a81548173ffffffffffffffffffffffffffffffffffffffff021916908373ffffffffffffffffffffffffffffffffffffffff16021790555080600860006101000a81548173ffffffffffffffffffffffffffffffffffffffff021916908373ffffffffffffffffffffffffffffffffffffffff16021790555050505050505050505050620003e3565b828054600181600116156101000203166002900490600052602060002090601f016020900481019282601f106200037757805160ff1916838001178555620003a8565b82800160010185558215620003a8579182015b82811115620003a75782518255916020019190600101906200038a565b5b509050620003b79190620003bb565b5090565b620003e091905b80821115620003dc576000816000905550600101620003c2565b5090565b90565b610e0080620003f36000396000f3fe6080604052600436106100a4576000357c0100000000000000000000000000000000000000000000000000000000900463ffffffff16806311c88b0c146100a9578063159e70641461010057806358385e931461012f578063632a9a52146102ab57806385c63680146102c25780638a2c511b146103d6578063943640c314610401578063b5dd115814610458578063deb613d1146104af578063e00d0fad146104de575b600080fd5b3480156100b557600080fd5b506100be610535565b604051808273ffffffffffffffffffffffffffffffffffffffff1673ffffffffffffffffffffffffffffffffffffffff16815260200191505060405180910390f35b34801561010c57600080fd5b5061011561055b565b604051808215151515815260200191505060405180910390f35b34801561013b57600080fd5b50610144610585565b604051808b81526020018a60ff1660ff1681526020018960ff1660ff1681526020018861ffff1661ffff168152602001806020018781526020018060200186151515158152602001851515151581526020018473ffffffffffffffffffffffffffffffffffffffff1673ffffffffffffffffffffffffffffffffffffffff168152602001838103835289818151815260200191508051906020019080838360005b838110156102005780820151818401526020810190506101e5565b50505050905090810190601f16801561022d5780820380516001836020036101000a031916815260200191505b50838103825287818151815260200191508051906020019080838360005b8381101561026657808201518184015260208101905061024b565b50505050905090810190601f1680156102935780820380516001836020036101000a031916815260200191505b509c5050505050505050505050505060405180910390f35b3480156102b757600080fd5b506102c0610792565b005b3480156102ce57600080fd5b50610394600480360360408110156102e557600080fd5b810190808035151590602001909291908035906020019064010000000081111561030e57600080fd5b82018360208201111561032057600080fd5b8035906020019184600183028401116401000000008311171561034257600080fd5b91908080601f016020809104026020016040519081016040528093929190818152602001838380828437600081840152601f19601f820116905080830192505050505050509192919290505050610920565b604051808273ffffffffffffffffffffffffffffffffffffffff1673ffffffffffffffffffffffffffffffffffffffff16815260200191505060405180910390f35b3480156103e257600080fd5b506103eb610d5b565b6040518082815260200191505060405180910390f35b34801561040d57600080fd5b50610416610d67565b604051808273ffffffffffffffffffffffffffffffffffffffff1673ffffffffffffffffffffffffffffffffffffffff16815260200191505060405180910390f35b34801561046457600080fd5b5061046d610d6f565b604051808273ffffffffffffffffffffffffffffffffffffffff1673ffffffffffffffffffffffffffffffffffffffff16815260200191505060405180910390f35b3480156104bb57600080fd5b506104c4610d95565b604051808215151515815260200191505060405180910390f35b3480156104ea57600080fd5b506104f3610dae565b604051808273ffffffffffffffffffffffffffffffffffffffff1673ffffffffffffffffffffffffffffffffffffffff16815260200191505060405180910390f35b600860009054906101000a900473ffffffffffffffffffffffffffffffffffffffff1681565b60008060050160009054906101000a900460ff161561057d5760009050610582565b600190505b90565b60008060008060606000606060008060008060000154600060010160000160039054906101000a900460ff16600060010160000160029054906101000a900460ff16600060010160000160009054906101000a900461ffff1660006002016000600301546000600401600060050160009054906101000a900460ff16600060050160019054906101000a900460ff16600060050160029054906101000a900473ffffffffffffffffffffffffffffffffffffffff16858054600181600116156101000203166002900480601f0160208091040260200160405190810160405280929190818152602001828054600181600116156101000203166002900480156106cf5780601f106106a4576101008083540402835291602001916106cf565b820191906000526020600020905b8154815290600101906020018083116106b257829003601f168201915b50505050509550838054600181600116156101000203166002900480601f01602080910402602001604051908101604052809291908181526020018280546001816001161561010002031660029004801561076b5780601f106107405761010080835404028352916020019161076b565b820191906000526020600020905b81548152906001019060200180831161074e57829003601f168201915b50505050509350995099509950995099509950995099509950995090919293949596979899565b600860009054906101000a900473ffffffffffffffffffffffffffffffffffffffff1673ffffffffffffffffffffffffffffffffffffffff163373ffffffffffffffffffffffffffffffffffffffff1614151561087d576040517f08c379a00000000000000000000000000000000000000000000000000000000081526004018080602001828103825260268152602001807f566f74696e672063616e206265206f6e6c7920646f6e65207468726f7567682081526020017f62616c6c6f74000000000000000000000000000000000000000000000000000081525060400191505060405180910390fd5b6001151561088961055b565b1515141515610900576040517f08c379a00000000000000000000000000000000000000000000000000000000081526004018080602001828103825260168152602001807f557365722068617320616c726561647920766f7465640000000000000000000081525060200191505060405180910390fd5b6001600060050160006101000a81548160ff021916908315150217905550565b60008073ffffffffffffffffffffffffffffffffffffffff16600660009054906101000a900473ffffffffffffffffffffffffffffffffffffffff1673ffffffffffffffffffffffffffffffffffffffff16141515156109e8576040517f08c379a00000000000000000000000000000000000000000000000000000000081526004018080602001828103825260188152602001807f43616e646964617465466163746f7279206e6f7420736574000000000000000081525060200191505060405180910390fd5b60001515600060050160019054906101000a900460ff161515141515610a76576040517f08c379a000000000000000000000000000000000000000000000000000000000815260040180806020018281038252601a8152602001807f566f74657220697320616c72656164792043616e64696461746500000000000081525060200191505060405180910390fd5b6000600660009054906101000a900473ffffffffffffffffffffffffffffffffffffffff1690506001600060050160016101000a81548160ff0219169083151502179055508073ffffffffffffffffffffffffffffffffffffffff166393991cf36000800154600060010160000160039054906101000a900460ff16600060010160000160029054906101000a900460ff16600060010160000160009054906101000a900461ffff1660006002016000600301548b8b6040518963ffffffff167c0100000000000000000000000000000000000000000000000000000000028152600401808981526020018860ff1660ff1681526020018760ff1660ff1681526020018661ffff1661ffff168152602001806020018581526020018415151515815260200180602001838103835287818154600181600116156101000203166002900481526020019150805460018160011615610100020316600290048015610c205780601f10610bf557610100808354040283529160200191610c20565b820191906000526020600020905b815481529060010190602001808311610c0357829003601f168201915b5050838103825284818151815260200191508051906020019080838360005b83811015610c5a578082015181840152602081019050610c3f565b50505050905090810190601f168015610c875780820380516001836020036101000a031916815260200191505b509a5050505050505050505050602060405180830381600087803b158015610cae57600080fd5b505af1158015610cc2573d6000803e3d6000fd5b505050506040513d6020811015610cd857600080fd5b8101908080519060200190929190505050600060050160026101000a81548173ffffffffffffffffffffffffffffffffffffffff021916908373ffffffffffffffffffffffffffffffffffffffff160217905550600060050160029054906101000a900473ffffffffffffffffffffffffffffffffffffffff1691505092915050565b60008060000154905090565b600030905090565b600660009054906101000a900473ffffffffffffffffffffffffffffffffffffffff1681565b60008060050160009054906101000a900460ff16905090565b600760009054906101000a900473ffffffffffffffffffffffffffffffffffffffff168156fea165627a7a723058209bda8adf8b1e17f34e99db09b45f256bc35167bf2623384900196c8bbd732da80029",
  "source": "pragma solidity >=0.4.22 <0.6.0;\r\nimport \"./CandidateFactory.sol\";\r\nimport \"./Candidate.sol\";\r\n\r\ncontract Voter{\r\n    struct voterInfo{\r\n        uint256 aadhaar;\r\n        DateTime dob;\r\n        string name;\r\n        int ward;\r\n        string mobile;\r\n        bool hasVoted;\r\n        bool isCandidate;\r\n        address candidateAddress;\r\n    }\r\n    \r\n    struct DateTime {\r\n        uint16 year;\r\n        uint8 month;\r\n        uint8 day;\r\n    }\r\n    \r\n    voterInfo voterDetails;\r\n    address public candidateFactory;\r\n    address public voterFactory;\r\n    address public ballotaddress;\r\n    // uint256[] candidateList;\r\n    // address[] candidateAddressList;\r\n    \r\n    \r\n    constructor(uint256 aadhaar, uint8 day, uint8 month, uint16 year, string memory name, int ward, string memory mobile,address _candidateFactoryAdd, address _voterFactoryAdd,address _ballotadd) public{\r\n        voterDetails.aadhaar = aadhaar;   \r\n        voterDetails.dob.day = day;\r\n        voterDetails.dob.year = year;\r\n        voterDetails.dob.month = month;\r\n        voterDetails.name = name;\r\n        voterDetails.ward = ward;\r\n        voterDetails.mobile = mobile;\r\n        voterDetails.hasVoted = false;\r\n        voterDetails.isCandidate = false;\r\n        voterDetails.candidateAddress = address(0x0);\r\n        candidateFactory = _candidateFactoryAdd;\r\n        voterFactory = _voterFactoryAdd;\r\n        ballotaddress = address(_ballotadd);\r\n    }\r\n    \r\n    function becomeCandidate(bool hasPoliceCase, string memory partySymbol) public returns(address){\r\n        require(candidateFactory != address(0x0), \"CandidateFactory not set\");\r\n        require(voterDetails.isCandidate == false, \"Voter is already Candidate\");\r\n        CandidateFactory _candidateFactory = CandidateFactory(candidateFactory);\r\n        voterDetails.isCandidate = true;\r\n        voterDetails.candidateAddress = address(_candidateFactory.createCandidate(voterDetails.aadhaar, voterDetails.dob.day, voterDetails.dob.month, voterDetails.dob.year, voterDetails.name, voterDetails.ward, hasPoliceCase, partySymbol));\r\n        return address(voterDetails.candidateAddress);\r\n    }\r\n\r\n    //This function must be called only by ballot\r\n    function vote() public restrictedOnVoting{\r\n        require(canVote() == true, \"User has already voted\");\r\n        voterDetails.hasVoted = true;\r\n    }\r\n\r\n    function canVote() public view returns (bool){\r\n        if (voterDetails.hasVoted)\r\n            return false;\r\n        return true;\r\n    }\r\n\r\n    function displayAadhaar() public view returns(uint256){\r\n        return voterDetails.aadhaar;\r\n    }\r\n    \r\n    function displayHasVoted() public view returns(bool){\r\n        return voterDetails.hasVoted;\r\n    }\r\n    \r\n    function returnAddress() public view returns (address){\r\n        return address(this);\r\n    }\r\n    \r\n    function returnVoterInfo() public view returns (uint256 aadhaar, uint8 day, uint8 month, uint16 year, string memory name, int ward, string memory mobile,bool hasVoted, bool isCandidate, address candidateAddress){\r\n        return(\r\n                voterDetails.aadhaar,\r\n                voterDetails.dob.day,\r\n                voterDetails.dob.month,\r\n                voterDetails.dob.year,\r\n                voterDetails.name,\r\n                voterDetails.ward,\r\n                voterDetails.mobile,\r\n                voterDetails.hasVoted,\r\n                voterDetails.isCandidate,\r\n                voterDetails.candidateAddress\r\n            );\r\n    }\r\n    \r\n    modifier restricted() {\r\n        require(msg.sender == voterFactory, \"Must be created by factory in Voter\");\r\n        _;\r\n    }\r\n    \r\n    modifier restrictedOnVoting(){\r\n        require(msg.sender == ballotaddress, \"Voting can be only done through ballot\");\r\n        _;\r\n    }\r\n}",
  "sourcePath": "c:\\Users\\mayan\\OneDrive\\Desktop\\asdf\\blockvote\\contracts\\Voter.sol",
  "compiler": {
    "name": "solc",
    "version": "0.5.0+commit.1d4f565a.Emscripten.clang"
  },
  "schemaVersion": "3.0.11",
  "updatedAt": "2019-08-21T10:39:28.700Z",
  "devdoc": {
    "methods": {}
  },
  "userdoc": {
    "methods": {}
  }
}