{
  "contractName": "VoterFactory",
  "abi": [
    {
      "inputs": [],
      "payable": false,
      "stateMutability": "nonpayable",
      "type": "constructor"
    },
    {
      "constant": false,
      "inputs": [
        {
          "name": "_ballotAddress",
          "type": "address"
        }
      ],
      "name": "setBallotAddress",
      "outputs": [],
      "payable": false,
      "stateMutability": "nonpayable",
      "type": "function"
    },
    {
      "constant": false,
      "inputs": [
        {
          "name": "aadhaar",
          "type": "uint256"
        },
        {
          "name": "day",
          "type": "uint8"
        },
        {
          "name": "month",
          "type": "uint8"
        },
        {
          "name": "year",
          "type": "uint16"
        },
        {
          "name": "name",
          "type": "string"
        },
        {
          "name": "ward",
          "type": "int256"
        },
        {
          "name": "mobile",
          "type": "string"
        }
      ],
      "name": "createVoter",
      "outputs": [
        {
          "name": "",
          "type": "address"
        }
      ],
      "payable": false,
      "stateMutability": "nonpayable",
      "type": "function"
    },
    {
      "constant": false,
      "inputs": [
        {
          "name": "adminAddress",
          "type": "address"
        }
      ],
      "name": "setAdminAddress",
      "outputs": [],
      "payable": false,
      "stateMutability": "nonpayable",
      "type": "function"
    },
    {
      "constant": false,
      "inputs": [
        {
          "name": "_candidateFactory",
          "type": "address"
        }
      ],
      "name": "setCandidateFactory",
      "outputs": [],
      "payable": false,
      "stateMutability": "nonpayable",
      "type": "function"
    },
    {
      "constant": true,
      "inputs": [],
      "name": "returnAddress",
      "outputs": [
        {
          "name": "",
          "type": "address"
        }
      ],
      "payable": false,
      "stateMutability": "view",
      "type": "function"
    },
    {
      "constant": true,
      "inputs": [],
      "name": "returnVotersList",
      "outputs": [
        {
          "name": "",
          "type": "address[]"
        }
      ],
      "payable": false,
      "stateMutability": "view",
      "type": "function"
    },
    {
      "constant": true,
      "inputs": [
        {
          "name": "aadhaar",
          "type": "uint256"
        }
      ],
      "name": "returnVoterAddress",
      "outputs": [
        {
          "name": "",
          "type": "address"
        }
      ],
      "payable": false,
      "stateMutability": "view",
      "type": "function"
    }
  ],
  "bytecode": "0x608060405273bb2869dd663544dae1efa69f010ae11c7e33f3a26000806101000a81548173ffffffffffffffffffffffffffffffffffffffff021916908373ffffffffffffffffffffffffffffffffffffffff16021790555034801561006457600080fd5b506000809054906101000a900473ffffffffffffffffffffffffffffffffffffffff1673ffffffffffffffffffffffffffffffffffffffff163373ffffffffffffffffffffffffffffffffffffffff1614151561014f576040517f08c379a00000000000000000000000000000000000000000000000000000000081526004018080602001828103825260238152602001807f4d757374206265206f776e657220696e20566f746572466163746f7279206f7781526020017f6e6572000000000000000000000000000000000000000000000000000000000081525060400191505060405180910390fd5b6121718061015e6000396000f3fe608060405260043610610083576000357c0100000000000000000000000000000000000000000000000000000000900463ffffffff168063047f52f2146100885780632c1e816d146100d95780633be5b4971461012a5780635a50d1ed1461017b578063943640c3146101e7578063ced3c3591461023e578063e07e3cbf146102b9575b600080fd5b34801561009457600080fd5b506100d7600480360360208110156100ab57600080fd5b81019080803573ffffffffffffffffffffffffffffffffffffffff169060200190929190505050610494565b005b3480156100e557600080fd5b50610128600480360360208110156100fc57600080fd5b81019080803573ffffffffffffffffffffffffffffffffffffffff1690602001909291905050506105c2565b005b34801561013657600080fd5b506101796004803603602081101561014d57600080fd5b81019080803573ffffffffffffffffffffffffffffffffffffffff1690602001909291905050506106f0565b005b34801561018757600080fd5b5061019061081e565b6040518080602001828103825283818151815260200191508051906020019060200280838360005b838110156101d35780820151818401526020810190506101b8565b505050509050019250505060405180910390f35b3480156101f357600080fd5b506101fc6108ac565b604051808273ffffffffffffffffffffffffffffffffffffffff1673ffffffffffffffffffffffffffffffffffffffff16815260200191505060405180910390f35b34801561024a57600080fd5b506102776004803603602081101561026157600080fd5b81019080803590602001909291905050506108b4565b604051808273ffffffffffffffffffffffffffffffffffffffff1673ffffffffffffffffffffffffffffffffffffffff16815260200191505060405180910390f35b3480156102c557600080fd5b50610452600480360360e08110156102dc57600080fd5b8101908080359060200190929190803560ff169060200190929190803560ff169060200190929190803561ffff1690602001909291908035906020019064010000000081111561032b57600080fd5b82018360208201111561033d57600080fd5b8035906020019184600183028401116401000000008311171561035f57600080fd5b91908080601f016020809104026020016040519081016040528093929190818152602001838380828437600081840152601f19601f82011690508083019250505050505050919291929080359060200190929190803590602001906401000000008111156103cc57600080fd5b8201836020820111156103de57600080fd5b8035906020019184600183028401116401000000008311171561040057600080fd5b91908080601f016020809104026020016040519081016040528093929190818152602001838380828437600081840152601f19601f8201169050808301925050505050505091929192905050506108f1565b604051808273ffffffffffffffffffffffffffffffffffffffff1673ffffffffffffffffffffffffffffffffffffffff16815260200191505060405180910390f35b6000809054906101000a900473ffffffffffffffffffffffffffffffffffffffff1673ffffffffffffffffffffffffffffffffffffffff163373ffffffffffffffffffffffffffffffffffffffff1614151561057e576040517f08c379a00000000000000000000000000000000000000000000000000000000081526004018080602001828103825260238152602001807f4d757374206265206f776e657220696e20566f746572466163746f7279206f7781526020017f6e6572000000000000000000000000000000000000000000000000000000000081525060400191505060405180910390fd5b80600260006101000a81548173ffffffffffffffffffffffffffffffffffffffff021916908373ffffffffffffffffffffffffffffffffffffffff16021790555050565b6000809054906101000a900473ffffffffffffffffffffffffffffffffffffffff1673ffffffffffffffffffffffffffffffffffffffff163373ffffffffffffffffffffffffffffffffffffffff161415156106ac576040517f08c379a00000000000000000000000000000000000000000000000000000000081526004018080602001828103825260238152602001807f4d757374206265206f776e657220696e20566f746572466163746f7279206f7781526020017f6e6572000000000000000000000000000000000000000000000000000000000081525060400191505060405180910390fd5b80600160006101000a81548173ffffffffffffffffffffffffffffffffffffffff021916908373ffffffffffffffffffffffffffffffffffffffff16021790555050565b6000809054906101000a900473ffffffffffffffffffffffffffffffffffffffff1673ffffffffffffffffffffffffffffffffffffffff163373ffffffffffffffffffffffffffffffffffffffff161415156107da576040517f08c379a00000000000000000000000000000000000000000000000000000000081526004018080602001828103825260238152602001807f4d757374206265206f776e657220696e20566f746572466163746f7279206f7781526020017f6e6572000000000000000000000000000000000000000000000000000000000081525060400191505060405180910390fd5b80600560006101000a81548173ffffffffffffffffffffffffffffffffffffffff021916908373ffffffffffffffffffffffffffffffffffffffff16021790555050565b606060048054806020026020016040519081016040528092919081815260200182805480156108a257602002820191906000526020600020905b8160009054906101000a900473ffffffffffffffffffffffffffffffffffffffff1673ffffffffffffffffffffffffffffffffffffffff1681526020019060010190808311610858575b5050505050905090565b600030905090565b60006003600083815260200190815260200160002060009054906101000a900473ffffffffffffffffffffffffffffffffffffffff169050919050565b60008073ffffffffffffffffffffffffffffffffffffffff16600160009054906101000a900473ffffffffffffffffffffffffffffffffffffffff1673ffffffffffffffffffffffffffffffffffffffff16141515156109df576040517f08c379a000000000000000000000000000000000000000000000000000000000815260040180806020018281038252602a8152602001807f61646d696e436f6e747261637441646472657373206e6f74207365743a20566f81526020017f746572466163746f72790000000000000000000000000000000000000000000081525060400191505060405180910390fd5b600160009054906101000a900473ffffffffffffffffffffffffffffffffffffffff1673ffffffffffffffffffffffffffffffffffffffff163373ffffffffffffffffffffffffffffffffffffffff16141515610aca576040517f08c379a00000000000000000000000000000000000000000000000000000000081526004018080602001828103825260328152602001807f4d757374206265206f776e657220696e20566f746572466163746f727920616481526020017f6d696e436f6e747261637441646472657373000000000000000000000000000081525060400191505060405180910390fd5b600073ffffffffffffffffffffffffffffffffffffffff16600260009054906101000a900473ffffffffffffffffffffffffffffffffffffffff1673ffffffffffffffffffffffffffffffffffffffff1614151515610b91576040517f08c379a000000000000000000000000000000000000000000000000000000000815260040180806020018281038252601d8152602001807f63616e646964617465466163746f7279206e6f74206465636c6172656400000081525060200191505060405180910390fd5b600073ffffffffffffffffffffffffffffffffffffffff16600560009054906101000a900473ffffffffffffffffffffffffffffffffffffffff1673ffffffffffffffffffffffffffffffffffffffff1614151515610c58576040517f08c379a000000000000000000000000000000000000000000000000000000000815260040180806020018281038252601a8152602001807f62616c6c6f7441646472657373206e6f74206465636c6172656400000000000081525060200191505060405180910390fd5b600088888888888888600260009054906101000a900473ffffffffffffffffffffffffffffffffffffffff1630600560009054906101000a900473ffffffffffffffffffffffffffffffffffffffff16610cb0610f41565b808b81526020018a60ff1660ff1681526020018960ff1660ff1681526020018861ffff1661ffff16815260200180602001878152602001806020018673ffffffffffffffffffffffffffffffffffffffff1673ffffffffffffffffffffffffffffffffffffffff1681526020018573ffffffffffffffffffffffffffffffffffffffff1673ffffffffffffffffffffffffffffffffffffffff1681526020018473ffffffffffffffffffffffffffffffffffffffff1673ffffffffffffffffffffffffffffffffffffffff168152602001838103835289818151815260200191508051906020019080838360005b83811015610db9578082015181840152602081019050610d9e565b50505050905090810190601f168015610de65780820380516001836020036101000a031916815260200191505b50838103825287818151815260200191508051906020019080838360005b83811015610e1f578082015181840152602081019050610e04565b50505050905090810190601f168015610e4c5780820380516001836020036101000a031916815260200191505b509c50505050505050505050505050604051809103906000f080158015610e77573d6000803e3d6000fd5b50905080600360008b815260200190815260200160002060006101000a81548173ffffffffffffffffffffffffffffffffffffffff021916908373ffffffffffffffffffffffffffffffffffffffff16021790555060048190806001815401808255809150509060018203906000526020600020016000909192909190916101000a81548173ffffffffffffffffffffffffffffffffffffffff021916908373ffffffffffffffffffffffffffffffffffffffff1602179055505080915050979650505050505050565b6040516111f38062000f538339019056fe60806040523480156200001157600080fd5b50604051620011f3380380620011f383398101806040526101408110156200003857600080fd5b810190808051906020019092919080519060200190929190805190602001909291908051906020019092919080516401000000008111156200007957600080fd5b828101905060208101848111156200009057600080fd5b8151856001820283011164010000000082111715620000ae57600080fd5b5050929190602001805190602001909291908051640100000000811115620000d557600080fd5b82810190506020810184811115620000ec57600080fd5b81518560018202830111640100000000821117156200010a57600080fd5b505092919060200180519060200190929190805190602001909291908051906020019092919050505089600080018190555088600060010160000160036101000a81548160ff021916908360ff16021790555086600060010160000160006101000a81548161ffff021916908361ffff16021790555087600060010160000160026101000a81548160ff021916908360ff1602179055508560006002019080519060200190620001bc92919062000334565b50846000600301819055508360006004019080519060200190620001e292919062000334565b5060008060050160006101000a81548160ff02191690831515021790555060008060050160016101000a81548160ff02191690831515021790555060008060050160026101000a81548173ffffffffffffffffffffffffffffffffffffffff021916908373ffffffffffffffffffffffffffffffffffffffff16021790555082600660006101000a81548173ffffffffffffffffffffffffffffffffffffffff021916908373ffffffffffffffffffffffffffffffffffffffff16021790555081600760006101000a81548173ffffffffffffffffffffffffffffffffffffffff021916908373ffffffffffffffffffffffffffffffffffffffff16021790555080600860006101000a81548173ffffffffffffffffffffffffffffffffffffffff021916908373ffffffffffffffffffffffffffffffffffffffff16021790555050505050505050505050620003e3565b828054600181600116156101000203166002900490600052602060002090601f016020900481019282601f106200037757805160ff1916838001178555620003a8565b82800160010185558215620003a8579182015b82811115620003a75782518255916020019190600101906200038a565b5b509050620003b79190620003bb565b5090565b620003e091905b80821115620003dc576000816000905550600101620003c2565b5090565b90565b610e0080620003f36000396000f3fe6080604052600436106100a4576000357c0100000000000000000000000000000000000000000000000000000000900463ffffffff16806311c88b0c146100a9578063159e70641461010057806358385e931461012f578063632a9a52146102ab57806385c63680146102c25780638a2c511b146103d6578063943640c314610401578063b5dd115814610458578063deb613d1146104af578063e00d0fad146104de575b600080fd5b3480156100b557600080fd5b506100be610535565b604051808273ffffffffffffffffffffffffffffffffffffffff1673ffffffffffffffffffffffffffffffffffffffff16815260200191505060405180910390f35b34801561010c57600080fd5b5061011561055b565b604051808215151515815260200191505060405180910390f35b34801561013b57600080fd5b50610144610585565b604051808b81526020018a60ff1660ff1681526020018960ff1660ff1681526020018861ffff1661ffff168152602001806020018781526020018060200186151515158152602001851515151581526020018473ffffffffffffffffffffffffffffffffffffffff1673ffffffffffffffffffffffffffffffffffffffff168152602001838103835289818151815260200191508051906020019080838360005b838110156102005780820151818401526020810190506101e5565b50505050905090810190601f16801561022d5780820380516001836020036101000a031916815260200191505b50838103825287818151815260200191508051906020019080838360005b8381101561026657808201518184015260208101905061024b565b50505050905090810190601f1680156102935780820380516001836020036101000a031916815260200191505b509c5050505050505050505050505060405180910390f35b3480156102b757600080fd5b506102c0610792565b005b3480156102ce57600080fd5b50610394600480360360408110156102e557600080fd5b810190808035151590602001909291908035906020019064010000000081111561030e57600080fd5b82018360208201111561032057600080fd5b8035906020019184600183028401116401000000008311171561034257600080fd5b91908080601f016020809104026020016040519081016040528093929190818152602001838380828437600081840152601f19601f820116905080830192505050505050509192919290505050610920565b604051808273ffffffffffffffffffffffffffffffffffffffff1673ffffffffffffffffffffffffffffffffffffffff16815260200191505060405180910390f35b3480156103e257600080fd5b506103eb610d5b565b6040518082815260200191505060405180910390f35b34801561040d57600080fd5b50610416610d67565b604051808273ffffffffffffffffffffffffffffffffffffffff1673ffffffffffffffffffffffffffffffffffffffff16815260200191505060405180910390f35b34801561046457600080fd5b5061046d610d6f565b604051808273ffffffffffffffffffffffffffffffffffffffff1673ffffffffffffffffffffffffffffffffffffffff16815260200191505060405180910390f35b3480156104bb57600080fd5b506104c4610d95565b604051808215151515815260200191505060405180910390f35b3480156104ea57600080fd5b506104f3610dae565b604051808273ffffffffffffffffffffffffffffffffffffffff1673ffffffffffffffffffffffffffffffffffffffff16815260200191505060405180910390f35b600860009054906101000a900473ffffffffffffffffffffffffffffffffffffffff1681565b60008060050160009054906101000a900460ff161561057d5760009050610582565b600190505b90565b60008060008060606000606060008060008060000154600060010160000160039054906101000a900460ff16600060010160000160029054906101000a900460ff16600060010160000160009054906101000a900461ffff1660006002016000600301546000600401600060050160009054906101000a900460ff16600060050160019054906101000a900460ff16600060050160029054906101000a900473ffffffffffffffffffffffffffffffffffffffff16858054600181600116156101000203166002900480601f0160208091040260200160405190810160405280929190818152602001828054600181600116156101000203166002900480156106cf5780601f106106a4576101008083540402835291602001916106cf565b820191906000526020600020905b8154815290600101906020018083116106b257829003601f168201915b50505050509550838054600181600116156101000203166002900480601f01602080910402602001604051908101604052809291908181526020018280546001816001161561010002031660029004801561076b5780601f106107405761010080835404028352916020019161076b565b820191906000526020600020905b81548152906001019060200180831161074e57829003601f168201915b50505050509350995099509950995099509950995099509950995090919293949596979899565b600860009054906101000a900473ffffffffffffffffffffffffffffffffffffffff1673ffffffffffffffffffffffffffffffffffffffff163373ffffffffffffffffffffffffffffffffffffffff1614151561087d576040517f08c379a00000000000000000000000000000000000000000000000000000000081526004018080602001828103825260268152602001807f566f74696e672063616e206265206f6e6c7920646f6e65207468726f7567682081526020017f62616c6c6f74000000000000000000000000000000000000000000000000000081525060400191505060405180910390fd5b6001151561088961055b565b1515141515610900576040517f08c379a00000000000000000000000000000000000000000000000000000000081526004018080602001828103825260168152602001807f557365722068617320616c726561647920766f7465640000000000000000000081525060200191505060405180910390fd5b6001600060050160006101000a81548160ff021916908315150217905550565b60008073ffffffffffffffffffffffffffffffffffffffff16600660009054906101000a900473ffffffffffffffffffffffffffffffffffffffff1673ffffffffffffffffffffffffffffffffffffffff16141515156109e8576040517f08c379a00000000000000000000000000000000000000000000000000000000081526004018080602001828103825260188152602001807f43616e646964617465466163746f7279206e6f7420736574000000000000000081525060200191505060405180910390fd5b60001515600060050160019054906101000a900460ff161515141515610a76576040517f08c379a000000000000000000000000000000000000000000000000000000000815260040180806020018281038252601a8152602001807f566f74657220697320616c72656164792043616e64696461746500000000000081525060200191505060405180910390fd5b6000600660009054906101000a900473ffffffffffffffffffffffffffffffffffffffff1690506001600060050160016101000a81548160ff0219169083151502179055508073ffffffffffffffffffffffffffffffffffffffff166393991cf36000800154600060010160000160039054906101000a900460ff16600060010160000160029054906101000a900460ff16600060010160000160009054906101000a900461ffff1660006002016000600301548b8b6040518963ffffffff167c0100000000000000000000000000000000000000000000000000000000028152600401808981526020018860ff1660ff1681526020018760ff1660ff1681526020018661ffff1661ffff168152602001806020018581526020018415151515815260200180602001838103835287818154600181600116156101000203166002900481526020019150805460018160011615610100020316600290048015610c205780601f10610bf557610100808354040283529160200191610c20565b820191906000526020600020905b815481529060010190602001808311610c0357829003601f168201915b5050838103825284818151815260200191508051906020019080838360005b83811015610c5a578082015181840152602081019050610c3f565b50505050905090810190601f168015610c875780820380516001836020036101000a031916815260200191505b509a5050505050505050505050602060405180830381600087803b158015610cae57600080fd5b505af1158015610cc2573d6000803e3d6000fd5b505050506040513d6020811015610cd857600080fd5b8101908080519060200190929190505050600060050160026101000a81548173ffffffffffffffffffffffffffffffffffffffff021916908373ffffffffffffffffffffffffffffffffffffffff160217905550600060050160029054906101000a900473ffffffffffffffffffffffffffffffffffffffff1691505092915050565b60008060000154905090565b600030905090565b600660009054906101000a900473ffffffffffffffffffffffffffffffffffffffff1681565b60008060050160009054906101000a900460ff16905090565b600760009054906101000a900473ffffffffffffffffffffffffffffffffffffffff168156fea165627a7a723058209bda8adf8b1e17f34e99db09b45f256bc35167bf2623384900196c8bbd732da80029a165627a7a72305820451e17303c56f5fefc9e6fbb4d7c9d9145d50fed4f3d52be6de9e9beab14e8480029",
  "source": "pragma solidity >=0.4.22 <0.6.0;\r\nimport \"./Voter.sol\";\r\n\r\ncontract VoterFactory{\r\n    address private owner=address(0xbB2869dd663544daE1EfA69F010aE11C7E33f3a2); // Admin address\r\n    address private adminContractAddress;\r\n    address private candidateFactory;\r\n    mapping(uint256=>address) votersList;\r\n    address[] votersAddressList;\r\n    address ballotAddress;\r\n    \r\n    constructor() public restricted{\r\n    }\r\n    \r\n    function setBallotAddress(address _ballotAddress) public restricted{\r\n        ballotAddress = address(_ballotAddress);\r\n    } \r\n    \r\n    function createVoter(uint256 aadhaar, uint8 day, uint8 month, uint16 year, string memory name, int ward, string memory mobile) public restrictedAdminContract returns (address){\r\n        require(candidateFactory != address(0x0), \"candidateFactory not declared\");\r\n        require(ballotAddress != address(0x0), \"ballotAddress not declared\");\r\n        Voter newVoter = new Voter(aadhaar, day, month, year, name, ward, mobile, candidateFactory, address(this), ballotAddress);\r\n        votersList[aadhaar]=address(newVoter);\r\n        votersAddressList.push(address(newVoter));\r\n        return address(newVoter);\r\n    }\r\n    \r\n    function setAdminAddress(address adminAddress) public restricted{\r\n        adminContractAddress = address(adminAddress);\r\n    }\r\n\r\n    function setCandidateFactory(address _candidateFactory) public restricted{\r\n        candidateFactory = address(_candidateFactory);\r\n    }\r\n    \r\n    function returnAddress() public view returns (address){\r\n        return address(this);\r\n    }\r\n    \r\n    function returnVotersList() public view returns (address[] memory){\r\n        return votersAddressList;\r\n    }\r\n\r\n    function returnVoterAddress(uint256 aadhaar) public view returns (address){\r\n        return votersList[aadhaar];\r\n    }\r\n    \r\n    modifier restricted() {\r\n        require(msg.sender == owner, \"Must be owner in VoterFactory owner\");\r\n        _;\r\n    }\r\n\r\n    modifier restrictedAdminContract() {\r\n        require (adminContractAddress != address(0x0), \"adminContractAddress not set: VoterFactory\");\r\n        require(msg.sender == adminContractAddress, \"Must be owner in VoterFactory adminContractAddress\");\r\n        _;\r\n    }\r\n}",
  "sourcePath": "c:\\Users\\mayan\\OneDrive\\Desktop\\asdf\\blockvote\\contracts\\VoterFactory.sol",
  "compiler": {
    "name": "solc",
    "version": "0.5.0+commit.1d4f565a.Emscripten.clang"
  },
  "schemaVersion": "3.0.11",
  "updatedAt": "2019-08-21T10:39:30.160Z",
  "devdoc": {
    "methods": {}
  },
  "userdoc": {
    "methods": {}
  }
}